{
	"event.sol": {
		"EventContract": {
			"abi": [
				{
					"inputs": [
						{
							"internalType": "uint256",
							"name": "id",
							"type": "uint256"
						},
						{
							"internalType": "uint256",
							"name": "quantity",
							"type": "uint256"
						}
					],
					"name": "buyTicket",
					"outputs": [],
					"stateMutability": "payable",
					"type": "function"
				},
				{
					"inputs": [
						{
							"internalType": "string",
							"name": "name",
							"type": "string"
						},
						{
							"internalType": "uint256",
							"name": "date",
							"type": "uint256"
						},
						{
							"internalType": "uint256",
							"name": "price",
							"type": "uint256"
						},
						{
							"internalType": "uint256",
							"name": "ticketCount",
							"type": "uint256"
						}
					],
					"name": "createEvent",
					"outputs": [],
					"stateMutability": "nonpayable",
					"type": "function"
				},
				{
					"inputs": [
						{
							"internalType": "uint256",
							"name": "",
							"type": "uint256"
						}
					],
					"name": "events",
					"outputs": [
						{
							"internalType": "address",
							"name": "organizer",
							"type": "address"
						},
						{
							"internalType": "string",
							"name": "name",
							"type": "string"
						},
						{
							"internalType": "uint256",
							"name": "date",
							"type": "uint256"
						},
						{
							"internalType": "uint256",
							"name": "price",
							"type": "uint256"
						},
						{
							"internalType": "uint256",
							"name": "ticketCount",
							"type": "uint256"
						},
						{
							"internalType": "uint256",
							"name": "ticketRemain",
							"type": "uint256"
						}
					],
					"stateMutability": "view",
					"type": "function"
				},
				{
					"inputs": [],
					"name": "nextId",
					"outputs": [
						{
							"internalType": "uint256",
							"name": "",
							"type": "uint256"
						}
					],
					"stateMutability": "view",
					"type": "function"
				},
				{
					"inputs": [
						{
							"internalType": "address",
							"name": "",
							"type": "address"
						},
						{
							"internalType": "uint256",
							"name": "",
							"type": "uint256"
						}
					],
					"name": "tickets",
					"outputs": [
						{
							"internalType": "uint256",
							"name": "",
							"type": "uint256"
						}
					],
					"stateMutability": "view",
					"type": "function"
				},
				{
					"inputs": [
						{
							"internalType": "uint256",
							"name": "id",
							"type": "uint256"
						},
						{
							"internalType": "uint256",
							"name": "quantity",
							"type": "uint256"
						},
						{
							"internalType": "address",
							"name": "to",
							"type": "address"
						}
					],
					"name": "transferTicket",
					"outputs": [],
					"stateMutability": "nonpayable",
					"type": "function"
				}
			],
			"devdoc": {
				"kind": "dev",
				"methods": {},
				"version": 1
			},
			"evm": {
				"assembly": "    /* \"event.sol\":68:1688  contract EventContract {... */\n  mstore(0x40, 0x80)\n  callvalue\n  dup1\n  iszero\n  tag_1\n  jumpi\n  0x00\n  dup1\n  revert\ntag_1:\n  pop\n  dataSize(sub_0)\n  dup1\n  dataOffset(sub_0)\n  0x00\n  codecopy\n  0x00\n  return\nstop\n\nsub_0: assembly {\n        /* \"event.sol\":68:1688  contract EventContract {... */\n      mstore(0x40, 0x80)\n      jumpi(tag_1, lt(calldatasize, 0x04))\n      shr(0xe0, calldataload(0x00))\n      dup1\n      0x0374ab0b\n      eq\n      tag_2\n      jumpi\n      dup1\n      0x0b791430\n      eq\n      tag_3\n      jumpi\n      dup1\n      0x298ec208\n      eq\n      tag_4\n      jumpi\n      dup1\n      0x61b8ce8c\n      eq\n      tag_5\n      jumpi\n      dup1\n      0xdae7a13c\n      eq\n      tag_6\n      jumpi\n      dup1\n      0xf086a09b\n      eq\n      tag_7\n      jumpi\n    tag_1:\n      0x00\n      dup1\n      revert\n        /* \"event.sol\":402:782  function createEvent(string memory name,uint date,uint price,uint ticketCount) external{... */\n    tag_2:\n      callvalue\n      dup1\n      iszero\n      tag_8\n      jumpi\n      0x00\n      dup1\n      revert\n    tag_8:\n      pop\n      tag_9\n      0x04\n      dup1\n      calldatasize\n      sub\n      dup2\n      add\n      swap1\n      tag_10\n      swap2\n      swap1\n      tag_11\n      jump\t// in\n    tag_10:\n      tag_12\n      jump\t// in\n    tag_9:\n      stop\n        /* \"event.sol\":272:306  mapping(uint=>Event) public events */\n    tag_3:\n      callvalue\n      dup1\n      iszero\n      tag_13\n      jumpi\n      0x00\n      dup1\n      revert\n    tag_13:\n      pop\n      tag_14\n      0x04\n      dup1\n      calldatasize\n      sub\n      dup2\n      add\n      swap1\n      tag_15\n      swap2\n      swap1\n      tag_16\n      jump\t// in\n    tag_15:\n      tag_17\n      jump\t// in\n    tag_14:\n      mload(0x40)\n      tag_18\n      swap7\n      swap6\n      swap5\n      swap4\n      swap3\n      swap2\n      swap1\n      tag_19\n      jump\t// in\n    tag_18:\n      mload(0x40)\n      dup1\n      swap2\n      sub\n      swap1\n      return\n        /* \"event.sol\":791:1288  function buyTicket(uint id,uint quantity) external payable{... */\n    tag_4:\n      tag_20\n      0x04\n      dup1\n      calldatasize\n      sub\n      dup2\n      add\n      swap1\n      tag_21\n      swap2\n      swap1\n      tag_22\n      jump\t// in\n    tag_21:\n      tag_23\n      jump\t// in\n    tag_20:\n      stop\n        /* \"event.sol\":374:392  uint public nextId */\n    tag_5:\n      callvalue\n      dup1\n      iszero\n      tag_24\n      jumpi\n      0x00\n      dup1\n      revert\n    tag_24:\n      pop\n      tag_25\n      tag_26\n      jump\t// in\n    tag_25:\n      mload(0x40)\n      tag_27\n      swap2\n      swap1\n      tag_28\n      jump\t// in\n    tag_27:\n      mload(0x40)\n      dup1\n      swap2\n      sub\n      swap1\n      return\n        /* \"event.sol\":314:366  mapping(address=>mapping(uint=>uint)) public tickets */\n    tag_6:\n      callvalue\n      dup1\n      iszero\n      tag_29\n      jumpi\n      0x00\n      dup1\n      revert\n    tag_29:\n      pop\n      tag_30\n      0x04\n      dup1\n      calldatasize\n      sub\n      dup2\n      add\n      swap1\n      tag_31\n      swap2\n      swap1\n      tag_32\n      jump\t// in\n    tag_31:\n      tag_33\n      jump\t// in\n    tag_30:\n      mload(0x40)\n      tag_34\n      swap2\n      swap1\n      tag_28\n      jump\t// in\n    tag_34:\n      mload(0x40)\n      dup1\n      swap2\n      sub\n      swap1\n      return\n        /* \"event.sol\":1297:1685  function transferTicket(uint id,uint quantity,address to) external{... */\n    tag_7:\n      callvalue\n      dup1\n      iszero\n      tag_35\n      jumpi\n      0x00\n      dup1\n      revert\n    tag_35:\n      pop\n      tag_36\n      0x04\n      dup1\n      calldatasize\n      sub\n      dup2\n      add\n      swap1\n      tag_37\n      swap2\n      swap1\n      tag_38\n      jump\t// in\n    tag_37:\n      tag_39\n      jump\t// in\n    tag_36:\n      stop\n        /* \"event.sol\":402:782  function createEvent(string memory name,uint date,uint price,uint ticketCount) external{... */\n    tag_12:\n        /* \"event.sol\":514:529  block.timestamp */\n      timestamp\n        /* \"event.sol\":509:513  date */\n      dup4\n        /* \"event.sol\":509:529  date>block.timestamp */\n      gt\n        /* \"event.sol\":501:566  require(date>block.timestamp,\"you can organize event for future\") */\n      tag_41\n      jumpi\n      mload(0x40)\n      0x08c379a000000000000000000000000000000000000000000000000000000000\n      dup2\n      mstore\n      0x04\n      add\n      tag_42\n      swap1\n      tag_43\n      jump\t// in\n    tag_42:\n      mload(0x40)\n      dup1\n      swap2\n      sub\n      swap1\n      revert\n    tag_41:\n        /* \"event.sol\":598:599  0 */\n      0x00\n        /* \"event.sol\":586:597  ticketCount */\n      dup2\n        /* \"event.sol\":586:599  ticketCount>0 */\n      gt\n        /* \"event.sol\":578:661  require(ticketCount>0,\"you can organize event only if you can more than 0 tickets\") */\n      tag_44\n      jumpi\n      mload(0x40)\n      0x08c379a000000000000000000000000000000000000000000000000000000000\n      dup2\n      mstore\n      0x04\n      add\n      tag_45\n      swap1\n      tag_46\n      jump\t// in\n    tag_45:\n      mload(0x40)\n      dup1\n      swap2\n      sub\n      swap1\n      revert\n    tag_44:\n        /* \"event.sol\":692:749  Event(msg.sender,name,date,price,ticketCount,ticketCount) */\n      mload(0x40)\n      dup1\n      0xc0\n      add\n      0x40\n      mstore\n      dup1\n        /* \"event.sol\":698:708  msg.sender */\n      caller\n        /* \"event.sol\":692:749  Event(msg.sender,name,date,price,ticketCount,ticketCount) */\n      0xffffffffffffffffffffffffffffffffffffffff\n      and\n      dup2\n      mstore\n      0x20\n      add\n        /* \"event.sol\":709:713  name */\n      dup6\n        /* \"event.sol\":692:749  Event(msg.sender,name,date,price,ticketCount,ticketCount) */\n      dup2\n      mstore\n      0x20\n      add\n        /* \"event.sol\":714:718  date */\n      dup5\n        /* \"event.sol\":692:749  Event(msg.sender,name,date,price,ticketCount,ticketCount) */\n      dup2\n      mstore\n      0x20\n      add\n        /* \"event.sol\":719:724  price */\n      dup4\n        /* \"event.sol\":692:749  Event(msg.sender,name,date,price,ticketCount,ticketCount) */\n      dup2\n      mstore\n      0x20\n      add\n        /* \"event.sol\":725:736  ticketCount */\n      dup3\n        /* \"event.sol\":692:749  Event(msg.sender,name,date,price,ticketCount,ticketCount) */\n      dup2\n      mstore\n      0x20\n      add\n        /* \"event.sol\":737:748  ticketCount */\n      dup3\n        /* \"event.sol\":692:749  Event(msg.sender,name,date,price,ticketCount,ticketCount) */\n      dup2\n      mstore\n      pop\n        /* \"event.sol\":675:681  events */\n      0x00\n        /* \"event.sol\":675:689  events[nextId] */\n      dup1\n        /* \"event.sol\":682:688  nextId */\n      sload(0x02)\n        /* \"event.sol\":675:689  events[nextId] */\n      dup2\n      mstore\n      0x20\n      add\n      swap1\n      dup2\n      mstore\n      0x20\n      add\n      0x00\n      keccak256\n        /* \"event.sol\":675:749  events[nextId] = Event(msg.sender,name,date,price,ticketCount,ticketCount) */\n      0x00\n      dup3\n      add\n      mload\n      dup2\n      0x00\n      add\n      exp(0x0100, 0x00)\n      dup2\n      sload\n      dup2\n      0xffffffffffffffffffffffffffffffffffffffff\n      mul\n      not\n      and\n      swap1\n      dup4\n      0xffffffffffffffffffffffffffffffffffffffff\n      and\n      mul\n      or\n      swap1\n      sstore\n      pop\n      0x20\n      dup3\n      add\n      mload\n      dup2\n      0x01\n      add\n      swap1\n      dup2\n      tag_47\n      swap2\n      swap1\n      tag_48\n      jump\t// in\n    tag_47:\n      pop\n      0x40\n      dup3\n      add\n      mload\n      dup2\n      0x02\n      add\n      sstore\n      0x60\n      dup3\n      add\n      mload\n      dup2\n      0x03\n      add\n      sstore\n      0x80\n      dup3\n      add\n      mload\n      dup2\n      0x04\n      add\n      sstore\n      0xa0\n      dup3\n      add\n      mload\n      dup2\n      0x05\n      add\n      sstore\n      swap1\n      pop\n      pop\n        /* \"event.sol\":765:771  nextId */\n      0x02\n      0x00\n        /* \"event.sol\":765:773  nextId++ */\n      dup2\n      sload\n      dup1\n      swap3\n      swap2\n      swap1\n      tag_49\n      swap1\n      tag_50\n      jump\t// in\n    tag_49:\n      swap2\n      swap1\n      pop\n      sstore\n      pop\n        /* \"event.sol\":402:782  function createEvent(string memory name,uint date,uint price,uint ticketCount) external{... */\n      pop\n      pop\n      pop\n      pop\n      jump\t// out\n        /* \"event.sol\":272:306  mapping(uint=>Event) public events */\n    tag_17:\n      mstore(0x20, 0x00)\n      dup1\n      0x00\n      mstore\n      keccak256(0x00, 0x40)\n      0x00\n      swap2\n      pop\n      swap1\n      pop\n      dup1\n      0x00\n      add\n      0x00\n      swap1\n      sload\n      swap1\n      0x0100\n      exp\n      swap1\n      div\n      0xffffffffffffffffffffffffffffffffffffffff\n      and\n      swap1\n      dup1\n      0x01\n      add\n      dup1\n      sload\n      tag_51\n      swap1\n      tag_52\n      jump\t// in\n    tag_51:\n      dup1\n      0x1f\n      add\n      0x20\n      dup1\n      swap2\n      div\n      mul\n      0x20\n      add\n      mload(0x40)\n      swap1\n      dup2\n      add\n      0x40\n      mstore\n      dup1\n      swap3\n      swap2\n      swap1\n      dup2\n      dup2\n      mstore\n      0x20\n      add\n      dup3\n      dup1\n      sload\n      tag_53\n      swap1\n      tag_52\n      jump\t// in\n    tag_53:\n      dup1\n      iszero\n      tag_54\n      jumpi\n      dup1\n      0x1f\n      lt\n      tag_55\n      jumpi\n      0x0100\n      dup1\n      dup4\n      sload\n      div\n      mul\n      dup4\n      mstore\n      swap2\n      0x20\n      add\n      swap2\n      jump(tag_54)\n    tag_55:\n      dup3\n      add\n      swap2\n      swap1\n      0x00\n      mstore\n      keccak256(0x00, 0x20)\n      swap1\n    tag_56:\n      dup2\n      sload\n      dup2\n      mstore\n      swap1\n      0x01\n      add\n      swap1\n      0x20\n      add\n      dup1\n      dup4\n      gt\n      tag_56\n      jumpi\n      dup3\n      swap1\n      sub\n      0x1f\n      and\n      dup3\n      add\n      swap2\n    tag_54:\n      pop\n      pop\n      pop\n      pop\n      pop\n      swap1\n      dup1\n      0x02\n      add\n      sload\n      swap1\n      dup1\n      0x03\n      add\n      sload\n      swap1\n      dup1\n      0x04\n      add\n      sload\n      swap1\n      dup1\n      0x05\n      add\n      sload\n      swap1\n      pop\n      dup7\n      jump\t// out\n        /* \"event.sol\":791:1288  function buyTicket(uint id,uint quantity) external payable{... */\n    tag_23:\n        /* \"event.sol\":886:887  0 */\n      0x00\n        /* \"event.sol\":869:875  events */\n      dup1\n        /* \"event.sol\":869:879  events[id] */\n      0x00\n        /* \"event.sol\":876:878  id */\n      dup5\n        /* \"event.sol\":869:879  events[id] */\n      dup2\n      mstore\n      0x20\n      add\n      swap1\n      dup2\n      mstore\n      0x20\n      add\n      0x00\n      keccak256\n        /* \"event.sol\":869:884  events[id].date */\n      0x02\n      add\n      sload\n        /* \"event.sol\":869:887  events[id].date!=0 */\n      sub\n        /* \"event.sol\":861:911  require(events[id].date!=0,\"Event does not exist\") */\n      tag_58\n      jumpi\n      mload(0x40)\n      0x08c379a000000000000000000000000000000000000000000000000000000000\n      dup2\n      mstore\n      0x04\n      add\n      tag_59\n      swap1\n      tag_60\n      jump\t// in\n    tag_59:\n      mload(0x40)\n      dup1\n      swap2\n      sub\n      swap1\n      revert\n    tag_58:\n        /* \"event.sol\":947:962  block.timestamp */\n      timestamp\n        /* \"event.sol\":931:937  events */\n      0x00\n        /* \"event.sol\":931:941  events[id] */\n      dup1\n        /* \"event.sol\":938:940  id */\n      dup5\n        /* \"event.sol\":931:941  events[id] */\n      dup2\n      mstore\n      0x20\n      add\n      swap1\n      dup2\n      mstore\n      0x20\n      add\n      0x00\n      keccak256\n        /* \"event.sol\":931:946  events[id].date */\n      0x02\n      add\n      sload\n        /* \"event.sol\":931:962  events[id].date>block.timestamp */\n      gt\n        /* \"event.sol\":923:991  require(events[id].date>block.timestamp,\"event has already occured\") */\n      tag_61\n      jumpi\n      mload(0x40)\n      0x08c379a000000000000000000000000000000000000000000000000000000000\n      dup2\n      mstore\n      0x04\n      add\n      tag_62\n      swap1\n      tag_63\n      jump\t// in\n    tag_62:\n      mload(0x40)\n      dup1\n      swap2\n      sub\n      swap1\n      revert\n    tag_61:\n        /* \"event.sol\":1003:1023  Event storage _event */\n      0x00\n        /* \"event.sol\":1026:1032  events */\n      dup1\n        /* \"event.sol\":1026:1036  events[id] */\n      0x00\n        /* \"event.sol\":1033:1035  id */\n      dup5\n        /* \"event.sol\":1026:1036  events[id] */\n      dup2\n      mstore\n      0x20\n      add\n      swap1\n      dup2\n      mstore\n      0x20\n      add\n      0x00\n      keccak256\n        /* \"event.sol\":1003:1036  Event storage _event = events[id] */\n      swap1\n      pop\n        /* \"event.sol\":1083:1091  quantity */\n      dup2\n        /* \"event.sol\":1070:1076  _event */\n      dup2\n        /* \"event.sol\":1070:1082  _event.price */\n      0x03\n      add\n      sload\n        /* \"event.sol\":1070:1091  _event.price*quantity */\n      tag_64\n      swap2\n      swap1\n      tag_65\n      jump\t// in\n    tag_64:\n        /* \"event.sol\":1058:1067  msg.value */\n      callvalue\n        /* \"event.sol\":1058:1092  msg.value==(_event.price*quantity) */\n      eq\n        /* \"event.sol\":1050:1116  require(msg.value==(_event.price*quantity),\"Ethere is not enough\") */\n      tag_66\n      jumpi\n      mload(0x40)\n      0x08c379a000000000000000000000000000000000000000000000000000000000\n      dup2\n      mstore\n      0x04\n      add\n      tag_67\n      swap1\n      tag_68\n      jump\t// in\n    tag_67:\n      mload(0x40)\n      dup1\n      swap2\n      sub\n      swap1\n      revert\n    tag_66:\n        /* \"event.sol\":1159:1167  quantity */\n      dup2\n        /* \"event.sol\":1138:1144  _event */\n      dup2\n        /* \"event.sol\":1138:1157  _event.ticketRemain */\n      0x05\n      add\n      sload\n        /* \"event.sol\":1138:1167  _event.ticketRemain>=quantity */\n      lt\n      iszero\n        /* \"event.sol\":1130:1189  require(_event.ticketRemain>=quantity,\"not enough tickets\") */\n      tag_69\n      jumpi\n      mload(0x40)\n      0x08c379a000000000000000000000000000000000000000000000000000000000\n      dup2\n      mstore\n      0x04\n      add\n      tag_70\n      swap1\n      tag_71\n      jump\t// in\n    tag_70:\n      mload(0x40)\n      dup1\n      swap2\n      sub\n      swap1\n      revert\n    tag_69:\n        /* \"event.sol\":1224:1232  quantity */\n      dup2\n        /* \"event.sol\":1203:1209  _event */\n      dup2\n        /* \"event.sol\":1203:1222  _event.ticketRemain */\n      0x05\n      add\n      0x00\n        /* \"event.sol\":1203:1232  _event.ticketRemain-=quantity */\n      dup3\n      dup3\n      sload\n      tag_72\n      swap2\n      swap1\n      tag_73\n      jump\t// in\n    tag_72:\n      swap3\n      pop\n      pop\n      dup2\n      swap1\n      sstore\n      pop\n        /* \"event.sol\":1271:1279  quantity */\n      dup2\n        /* \"event.sol\":1246:1253  tickets */\n      0x01\n        /* \"event.sol\":1246:1265  tickets[msg.sender] */\n      0x00\n        /* \"event.sol\":1254:1264  msg.sender */\n      caller\n        /* \"event.sol\":1246:1265  tickets[msg.sender] */\n      0xffffffffffffffffffffffffffffffffffffffff\n      and\n      0xffffffffffffffffffffffffffffffffffffffff\n      and\n      dup2\n      mstore\n      0x20\n      add\n      swap1\n      dup2\n      mstore\n      0x20\n      add\n      0x00\n      keccak256\n        /* \"event.sol\":1246:1269  tickets[msg.sender][id] */\n      0x00\n        /* \"event.sol\":1266:1268  id */\n      dup6\n        /* \"event.sol\":1246:1269  tickets[msg.sender][id] */\n      dup2\n      mstore\n      0x20\n      add\n      swap1\n      dup2\n      mstore\n      0x20\n      add\n      0x00\n      keccak256\n      0x00\n        /* \"event.sol\":1246:1279  tickets[msg.sender][id]+=quantity */\n      dup3\n      dup3\n      sload\n      tag_74\n      swap2\n      swap1\n      tag_75\n      jump\t// in\n    tag_74:\n      swap3\n      pop\n      pop\n      dup2\n      swap1\n      sstore\n      pop\n        /* \"event.sol\":849:1288  {... */\n      pop\n        /* \"event.sol\":791:1288  function buyTicket(uint id,uint quantity) external payable{... */\n      pop\n      pop\n      jump\t// out\n        /* \"event.sol\":374:392  uint public nextId */\n    tag_26:\n      sload(0x02)\n      dup2\n      jump\t// out\n        /* \"event.sol\":314:366  mapping(address=>mapping(uint=>uint)) public tickets */\n    tag_33:\n      mstore(0x20, 0x01)\n      dup2\n      0x00\n      mstore\n      mstore(0x20, keccak256(0x00, 0x40))\n      dup1\n      0x00\n      mstore\n      keccak256(0x00, 0x40)\n      0x00\n      swap2\n      pop\n      swap2\n      pop\n      pop\n      sload\n      dup2\n      jump\t// out\n        /* \"event.sol\":1297:1685  function transferTicket(uint id,uint quantity,address to) external{... */\n    tag_39:\n        /* \"event.sol\":1400:1401  0 */\n      0x00\n        /* \"event.sol\":1383:1389  events */\n      dup1\n        /* \"event.sol\":1383:1393  events[id] */\n      0x00\n        /* \"event.sol\":1390:1392  id */\n      dup6\n        /* \"event.sol\":1383:1393  events[id] */\n      dup2\n      mstore\n      0x20\n      add\n      swap1\n      dup2\n      mstore\n      0x20\n      add\n      0x00\n      keccak256\n        /* \"event.sol\":1383:1398  events[id].date */\n      0x02\n      add\n      sload\n        /* \"event.sol\":1383:1401  events[id].date!=0 */\n      sub\n        /* \"event.sol\":1375:1425  require(events[id].date!=0,\"Event does not exist\") */\n      tag_77\n      jumpi\n      mload(0x40)\n      0x08c379a000000000000000000000000000000000000000000000000000000000\n      dup2\n      mstore\n      0x04\n      add\n      tag_78\n      swap1\n      tag_60\n      jump\t// in\n    tag_78:\n      mload(0x40)\n      dup1\n      swap2\n      sub\n      swap1\n      revert\n    tag_77:\n        /* \"event.sol\":1461:1476  block.timestamp */\n      timestamp\n        /* \"event.sol\":1445:1451  events */\n      0x00\n        /* \"event.sol\":1445:1455  events[id] */\n      dup1\n        /* \"event.sol\":1452:1454  id */\n      dup6\n        /* \"event.sol\":1445:1455  events[id] */\n      dup2\n      mstore\n      0x20\n      add\n      swap1\n      dup2\n      mstore\n      0x20\n      add\n      0x00\n      keccak256\n        /* \"event.sol\":1445:1460  events[id].date */\n      0x02\n      add\n      sload\n        /* \"event.sol\":1445:1476  events[id].date>block.timestamp */\n      gt\n        /* \"event.sol\":1437:1505  require(events[id].date>block.timestamp,\"event has already occured\") */\n      tag_79\n      jumpi\n      mload(0x40)\n      0x08c379a000000000000000000000000000000000000000000000000000000000\n      dup2\n      mstore\n      0x04\n      add\n      tag_80\n      swap1\n      tag_63\n      jump\t// in\n    tag_80:\n      mload(0x40)\n      dup1\n      swap2\n      sub\n      swap1\n      revert\n    tag_79:\n        /* \"event.sol\":1550:1558  quantity */\n      dup2\n        /* \"event.sol\":1525:1532  tickets */\n      0x01\n        /* \"event.sol\":1525:1544  tickets[msg.sender] */\n      0x00\n        /* \"event.sol\":1533:1543  msg.sender */\n      caller\n        /* \"event.sol\":1525:1544  tickets[msg.sender] */\n      0xffffffffffffffffffffffffffffffffffffffff\n      and\n      0xffffffffffffffffffffffffffffffffffffffff\n      and\n      dup2\n      mstore\n      0x20\n      add\n      swap1\n      dup2\n      mstore\n      0x20\n      add\n      0x00\n      keccak256\n        /* \"event.sol\":1525:1548  tickets[msg.sender][id] */\n      0x00\n        /* \"event.sol\":1545:1547  id */\n      dup6\n        /* \"event.sol\":1525:1548  tickets[msg.sender][id] */\n      dup2\n      mstore\n      0x20\n      add\n      swap1\n      dup2\n      mstore\n      0x20\n      add\n      0x00\n      keccak256\n      sload\n        /* \"event.sol\":1525:1558  tickets[msg.sender][id]>=quantity */\n      lt\n      iszero\n        /* \"event.sol\":1517:1594  require(tickets[msg.sender][id]>=quantity,\"you dont not have enough tickets\") */\n      tag_81\n      jumpi\n      mload(0x40)\n      0x08c379a000000000000000000000000000000000000000000000000000000000\n      dup2\n      mstore\n      0x04\n      add\n      tag_82\n      swap1\n      tag_83\n      jump\t// in\n    tag_82:\n      mload(0x40)\n      dup1\n      swap2\n      sub\n      swap1\n      revert\n    tag_81:\n        /* \"event.sol\":1631:1639  quantity */\n      dup2\n        /* \"event.sol\":1606:1613  tickets */\n      0x01\n        /* \"event.sol\":1606:1625  tickets[msg.sender] */\n      0x00\n        /* \"event.sol\":1614:1624  msg.sender */\n      caller\n        /* \"event.sol\":1606:1625  tickets[msg.sender] */\n      0xffffffffffffffffffffffffffffffffffffffff\n      and\n      0xffffffffffffffffffffffffffffffffffffffff\n      and\n      dup2\n      mstore\n      0x20\n      add\n      swap1\n      dup2\n      mstore\n      0x20\n      add\n      0x00\n      keccak256\n        /* \"event.sol\":1606:1629  tickets[msg.sender][id] */\n      0x00\n        /* \"event.sol\":1626:1628  id */\n      dup6\n        /* \"event.sol\":1606:1629  tickets[msg.sender][id] */\n      dup2\n      mstore\n      0x20\n      add\n      swap1\n      dup2\n      mstore\n      0x20\n      add\n      0x00\n      keccak256\n      0x00\n        /* \"event.sol\":1606:1639  tickets[msg.sender][id]-=quantity */\n      dup3\n      dup3\n      sload\n      tag_84\n      swap2\n      swap1\n      tag_73\n      jump\t// in\n    tag_84:\n      swap3\n      pop\n      pop\n      dup2\n      swap1\n      sstore\n      pop\n        /* \"event.sol\":1668:1676  quantity */\n      dup2\n        /* \"event.sol\":1651:1658  tickets */\n      0x01\n        /* \"event.sol\":1651:1662  tickets[to] */\n      0x00\n        /* \"event.sol\":1659:1661  to */\n      dup4\n        /* \"event.sol\":1651:1662  tickets[to] */\n      0xffffffffffffffffffffffffffffffffffffffff\n      and\n      0xffffffffffffffffffffffffffffffffffffffff\n      and\n      dup2\n      mstore\n      0x20\n      add\n      swap1\n      dup2\n      mstore\n      0x20\n      add\n      0x00\n      keccak256\n        /* \"event.sol\":1651:1666  tickets[to][id] */\n      0x00\n        /* \"event.sol\":1663:1665  id */\n      dup6\n        /* \"event.sol\":1651:1666  tickets[to][id] */\n      dup2\n      mstore\n      0x20\n      add\n      swap1\n      dup2\n      mstore\n      0x20\n      add\n      0x00\n      keccak256\n      0x00\n        /* \"event.sol\":1651:1676  tickets[to][id]+=quantity */\n      dup3\n      dup3\n      sload\n      tag_85\n      swap2\n      swap1\n      tag_75\n      jump\t// in\n    tag_85:\n      swap3\n      pop\n      pop\n      dup2\n      swap1\n      sstore\n      pop\n        /* \"event.sol\":1297:1685  function transferTicket(uint id,uint quantity,address to) external{... */\n      pop\n      pop\n      pop\n      jump\t// out\n        /* \"#utility.yul\":7:82   */\n    tag_86:\n        /* \"#utility.yul\":40:46   */\n      0x00\n        /* \"#utility.yul\":73:75   */\n      0x40\n        /* \"#utility.yul\":67:76   */\n      mload\n        /* \"#utility.yul\":57:76   */\n      swap1\n      pop\n        /* \"#utility.yul\":7:82   */\n      swap1\n      jump\t// out\n        /* \"#utility.yul\":88:205   */\n    tag_87:\n        /* \"#utility.yul\":197:198   */\n      0x00\n        /* \"#utility.yul\":194:195   */\n      dup1\n        /* \"#utility.yul\":187:199   */\n      revert\n        /* \"#utility.yul\":211:328   */\n    tag_88:\n        /* \"#utility.yul\":320:321   */\n      0x00\n        /* \"#utility.yul\":317:318   */\n      dup1\n        /* \"#utility.yul\":310:322   */\n      revert\n        /* \"#utility.yul\":334:451   */\n    tag_89:\n        /* \"#utility.yul\":443:444   */\n      0x00\n        /* \"#utility.yul\":440:441   */\n      dup1\n        /* \"#utility.yul\":433:445   */\n      revert\n        /* \"#utility.yul\":457:574   */\n    tag_90:\n        /* \"#utility.yul\":566:567   */\n      0x00\n        /* \"#utility.yul\":563:564   */\n      dup1\n        /* \"#utility.yul\":556:568   */\n      revert\n        /* \"#utility.yul\":580:682   */\n    tag_91:\n        /* \"#utility.yul\":621:627   */\n      0x00\n        /* \"#utility.yul\":672:674   */\n      0x1f\n        /* \"#utility.yul\":668:675   */\n      not\n        /* \"#utility.yul\":663:665   */\n      0x1f\n        /* \"#utility.yul\":656:661   */\n      dup4\n        /* \"#utility.yul\":652:666   */\n      add\n        /* \"#utility.yul\":648:676   */\n      and\n        /* \"#utility.yul\":638:676   */\n      swap1\n      pop\n        /* \"#utility.yul\":580:682   */\n      swap2\n      swap1\n      pop\n      jump\t// out\n        /* \"#utility.yul\":688:868   */\n    tag_92:\n        /* \"#utility.yul\":736:813   */\n      0x4e487b7100000000000000000000000000000000000000000000000000000000\n        /* \"#utility.yul\":733:734   */\n      0x00\n        /* \"#utility.yul\":726:814   */\n      mstore\n        /* \"#utility.yul\":833:837   */\n      0x41\n        /* \"#utility.yul\":830:831   */\n      0x04\n        /* \"#utility.yul\":823:838   */\n      mstore\n        /* \"#utility.yul\":857:861   */\n      0x24\n        /* \"#utility.yul\":854:855   */\n      0x00\n        /* \"#utility.yul\":847:862   */\n      revert\n        /* \"#utility.yul\":874:1155   */\n    tag_93:\n        /* \"#utility.yul\":957:984   */\n      tag_152\n        /* \"#utility.yul\":979:983   */\n      dup3\n        /* \"#utility.yul\":957:984   */\n      tag_91\n      jump\t// in\n    tag_152:\n        /* \"#utility.yul\":949:955   */\n      dup2\n        /* \"#utility.yul\":945:985   */\n      add\n        /* \"#utility.yul\":1087:1093   */\n      dup2\n        /* \"#utility.yul\":1075:1085   */\n      dup2\n        /* \"#utility.yul\":1072:1094   */\n      lt\n        /* \"#utility.yul\":1051:1069   */\n      0xffffffffffffffff\n        /* \"#utility.yul\":1039:1049   */\n      dup3\n        /* \"#utility.yul\":1036:1070   */\n      gt\n        /* \"#utility.yul\":1033:1095   */\n      or\n        /* \"#utility.yul\":1030:1118   */\n      iszero\n      tag_153\n      jumpi\n        /* \"#utility.yul\":1098:1116   */\n      tag_154\n      tag_92\n      jump\t// in\n    tag_154:\n        /* \"#utility.yul\":1030:1118   */\n    tag_153:\n        /* \"#utility.yul\":1138:1148   */\n      dup1\n        /* \"#utility.yul\":1134:1136   */\n      0x40\n        /* \"#utility.yul\":1127:1149   */\n      mstore\n        /* \"#utility.yul\":917:1155   */\n      pop\n        /* \"#utility.yul\":874:1155   */\n      pop\n      pop\n      jump\t// out\n        /* \"#utility.yul\":1161:1290   */\n    tag_94:\n        /* \"#utility.yul\":1195:1201   */\n      0x00\n        /* \"#utility.yul\":1222:1242   */\n      tag_156\n      tag_86\n      jump\t// in\n    tag_156:\n        /* \"#utility.yul\":1212:1242   */\n      swap1\n      pop\n        /* \"#utility.yul\":1251:1284   */\n      tag_157\n        /* \"#utility.yul\":1279:1283   */\n      dup3\n        /* \"#utility.yul\":1271:1277   */\n      dup3\n        /* \"#utility.yul\":1251:1284   */\n      tag_93\n      jump\t// in\n    tag_157:\n        /* \"#utility.yul\":1161:1290   */\n      swap2\n      swap1\n      pop\n      jump\t// out\n        /* \"#utility.yul\":1296:1604   */\n    tag_95:\n        /* \"#utility.yul\":1358:1362   */\n      0x00\n        /* \"#utility.yul\":1448:1466   */\n      0xffffffffffffffff\n        /* \"#utility.yul\":1440:1446   */\n      dup3\n        /* \"#utility.yul\":1437:1467   */\n      gt\n        /* \"#utility.yul\":1434:1490   */\n      iszero\n      tag_159\n      jumpi\n        /* \"#utility.yul\":1470:1488   */\n      tag_160\n      tag_92\n      jump\t// in\n    tag_160:\n        /* \"#utility.yul\":1434:1490   */\n    tag_159:\n        /* \"#utility.yul\":1508:1537   */\n      tag_161\n        /* \"#utility.yul\":1530:1536   */\n      dup3\n        /* \"#utility.yul\":1508:1537   */\n      tag_91\n      jump\t// in\n    tag_161:\n        /* \"#utility.yul\":1500:1537   */\n      swap1\n      pop\n        /* \"#utility.yul\":1592:1596   */\n      0x20\n        /* \"#utility.yul\":1586:1590   */\n      dup2\n        /* \"#utility.yul\":1582:1597   */\n      add\n        /* \"#utility.yul\":1574:1597   */\n      swap1\n      pop\n        /* \"#utility.yul\":1296:1604   */\n      swap2\n      swap1\n      pop\n      jump\t// out\n        /* \"#utility.yul\":1610:1756   */\n    tag_96:\n        /* \"#utility.yul\":1707:1713   */\n      dup3\n        /* \"#utility.yul\":1702:1705   */\n      dup2\n        /* \"#utility.yul\":1697:1700   */\n      dup4\n        /* \"#utility.yul\":1684:1714   */\n      calldatacopy\n        /* \"#utility.yul\":1748:1749   */\n      0x00\n        /* \"#utility.yul\":1739:1745   */\n      dup4\n        /* \"#utility.yul\":1734:1737   */\n      dup4\n        /* \"#utility.yul\":1730:1746   */\n      add\n        /* \"#utility.yul\":1723:1750   */\n      mstore\n        /* \"#utility.yul\":1610:1756   */\n      pop\n      pop\n      pop\n      jump\t// out\n        /* \"#utility.yul\":1762:2187   */\n    tag_97:\n        /* \"#utility.yul\":1840:1845   */\n      0x00\n        /* \"#utility.yul\":1865:1931   */\n      tag_164\n        /* \"#utility.yul\":1881:1930   */\n      tag_165\n        /* \"#utility.yul\":1923:1929   */\n      dup5\n        /* \"#utility.yul\":1881:1930   */\n      tag_95\n      jump\t// in\n    tag_165:\n        /* \"#utility.yul\":1865:1931   */\n      tag_94\n      jump\t// in\n    tag_164:\n        /* \"#utility.yul\":1856:1931   */\n      swap1\n      pop\n        /* \"#utility.yul\":1954:1960   */\n      dup3\n        /* \"#utility.yul\":1947:1952   */\n      dup2\n        /* \"#utility.yul\":1940:1961   */\n      mstore\n        /* \"#utility.yul\":1992:1996   */\n      0x20\n        /* \"#utility.yul\":1985:1990   */\n      dup2\n        /* \"#utility.yul\":1981:1997   */\n      add\n        /* \"#utility.yul\":2030:2033   */\n      dup5\n        /* \"#utility.yul\":2021:2027   */\n      dup5\n        /* \"#utility.yul\":2016:2019   */\n      dup5\n        /* \"#utility.yul\":2012:2028   */\n      add\n        /* \"#utility.yul\":2009:2034   */\n      gt\n        /* \"#utility.yul\":2006:2118   */\n      iszero\n      tag_166\n      jumpi\n        /* \"#utility.yul\":2037:2116   */\n      tag_167\n      tag_90\n      jump\t// in\n    tag_167:\n        /* \"#utility.yul\":2006:2118   */\n    tag_166:\n        /* \"#utility.yul\":2127:2181   */\n      tag_168\n        /* \"#utility.yul\":2174:2180   */\n      dup5\n        /* \"#utility.yul\":2169:2172   */\n      dup3\n        /* \"#utility.yul\":2164:2167   */\n      dup6\n        /* \"#utility.yul\":2127:2181   */\n      tag_96\n      jump\t// in\n    tag_168:\n        /* \"#utility.yul\":1846:2187   */\n      pop\n        /* \"#utility.yul\":1762:2187   */\n      swap4\n      swap3\n      pop\n      pop\n      pop\n      jump\t// out\n        /* \"#utility.yul\":2207:2547   */\n    tag_98:\n        /* \"#utility.yul\":2263:2268   */\n      0x00\n        /* \"#utility.yul\":2312:2315   */\n      dup3\n        /* \"#utility.yul\":2305:2309   */\n      0x1f\n        /* \"#utility.yul\":2297:2303   */\n      dup4\n        /* \"#utility.yul\":2293:2310   */\n      add\n        /* \"#utility.yul\":2289:2316   */\n      slt\n        /* \"#utility.yul\":2279:2401   */\n      tag_170\n      jumpi\n        /* \"#utility.yul\":2320:2399   */\n      tag_171\n      tag_89\n      jump\t// in\n    tag_171:\n        /* \"#utility.yul\":2279:2401   */\n    tag_170:\n        /* \"#utility.yul\":2437:2443   */\n      dup2\n        /* \"#utility.yul\":2424:2444   */\n      calldataload\n        /* \"#utility.yul\":2462:2541   */\n      tag_172\n        /* \"#utility.yul\":2537:2540   */\n      dup5\n        /* \"#utility.yul\":2529:2535   */\n      dup3\n        /* \"#utility.yul\":2522:2526   */\n      0x20\n        /* \"#utility.yul\":2514:2520   */\n      dup7\n        /* \"#utility.yul\":2510:2527   */\n      add\n        /* \"#utility.yul\":2462:2541   */\n      tag_97\n      jump\t// in\n    tag_172:\n        /* \"#utility.yul\":2453:2541   */\n      swap2\n      pop\n        /* \"#utility.yul\":2269:2547   */\n      pop\n        /* \"#utility.yul\":2207:2547   */\n      swap3\n      swap2\n      pop\n      pop\n      jump\t// out\n        /* \"#utility.yul\":2553:2630   */\n    tag_99:\n        /* \"#utility.yul\":2590:2597   */\n      0x00\n        /* \"#utility.yul\":2619:2624   */\n      dup2\n        /* \"#utility.yul\":2608:2624   */\n      swap1\n      pop\n        /* \"#utility.yul\":2553:2630   */\n      swap2\n      swap1\n      pop\n      jump\t// out\n        /* \"#utility.yul\":2636:2758   */\n    tag_100:\n        /* \"#utility.yul\":2709:2733   */\n      tag_175\n        /* \"#utility.yul\":2727:2732   */\n      dup2\n        /* \"#utility.yul\":2709:2733   */\n      tag_99\n      jump\t// in\n    tag_175:\n        /* \"#utility.yul\":2702:2707   */\n      dup2\n        /* \"#utility.yul\":2699:2734   */\n      eq\n        /* \"#utility.yul\":2689:2752   */\n      tag_176\n      jumpi\n        /* \"#utility.yul\":2748:2749   */\n      0x00\n        /* \"#utility.yul\":2745:2746   */\n      dup1\n        /* \"#utility.yul\":2738:2750   */\n      revert\n        /* \"#utility.yul\":2689:2752   */\n    tag_176:\n        /* \"#utility.yul\":2636:2758   */\n      pop\n      jump\t// out\n        /* \"#utility.yul\":2764:2903   */\n    tag_101:\n        /* \"#utility.yul\":2810:2815   */\n      0x00\n        /* \"#utility.yul\":2848:2854   */\n      dup2\n        /* \"#utility.yul\":2835:2855   */\n      calldataload\n        /* \"#utility.yul\":2826:2855   */\n      swap1\n      pop\n        /* \"#utility.yul\":2864:2897   */\n      tag_178\n        /* \"#utility.yul\":2891:2896   */\n      dup2\n        /* \"#utility.yul\":2864:2897   */\n      tag_100\n      jump\t// in\n    tag_178:\n        /* \"#utility.yul\":2764:2903   */\n      swap3\n      swap2\n      pop\n      pop\n      jump\t// out\n        /* \"#utility.yul\":2909:3854   */\n    tag_11:\n        /* \"#utility.yul\":3005:3011   */\n      0x00\n        /* \"#utility.yul\":3013:3019   */\n      dup1\n        /* \"#utility.yul\":3021:3027   */\n      0x00\n        /* \"#utility.yul\":3029:3035   */\n      dup1\n        /* \"#utility.yul\":3078:3081   */\n      0x80\n        /* \"#utility.yul\":3066:3075   */\n      dup6\n        /* \"#utility.yul\":3057:3064   */\n      dup8\n        /* \"#utility.yul\":3053:3076   */\n      sub\n        /* \"#utility.yul\":3049:3082   */\n      slt\n        /* \"#utility.yul\":3046:3166   */\n      iszero\n      tag_180\n      jumpi\n        /* \"#utility.yul\":3085:3164   */\n      tag_181\n      tag_87\n      jump\t// in\n    tag_181:\n        /* \"#utility.yul\":3046:3166   */\n    tag_180:\n        /* \"#utility.yul\":3233:3234   */\n      0x00\n        /* \"#utility.yul\":3222:3231   */\n      dup6\n        /* \"#utility.yul\":3218:3235   */\n      add\n        /* \"#utility.yul\":3205:3236   */\n      calldataload\n        /* \"#utility.yul\":3263:3281   */\n      0xffffffffffffffff\n        /* \"#utility.yul\":3255:3261   */\n      dup2\n        /* \"#utility.yul\":3252:3282   */\n      gt\n        /* \"#utility.yul\":3249:3366   */\n      iszero\n      tag_182\n      jumpi\n        /* \"#utility.yul\":3285:3364   */\n      tag_183\n      tag_88\n      jump\t// in\n    tag_183:\n        /* \"#utility.yul\":3249:3366   */\n    tag_182:\n        /* \"#utility.yul\":3390:3453   */\n      tag_184\n        /* \"#utility.yul\":3445:3452   */\n      dup8\n        /* \"#utility.yul\":3436:3442   */\n      dup3\n        /* \"#utility.yul\":3425:3434   */\n      dup9\n        /* \"#utility.yul\":3421:3443   */\n      add\n        /* \"#utility.yul\":3390:3453   */\n      tag_98\n      jump\t// in\n    tag_184:\n        /* \"#utility.yul\":3380:3453   */\n      swap5\n      pop\n        /* \"#utility.yul\":3176:3463   */\n      pop\n        /* \"#utility.yul\":3502:3504   */\n      0x20\n        /* \"#utility.yul\":3528:3581   */\n      tag_185\n        /* \"#utility.yul\":3573:3580   */\n      dup8\n        /* \"#utility.yul\":3564:3570   */\n      dup3\n        /* \"#utility.yul\":3553:3562   */\n      dup9\n        /* \"#utility.yul\":3549:3571   */\n      add\n        /* \"#utility.yul\":3528:3581   */\n      tag_101\n      jump\t// in\n    tag_185:\n        /* \"#utility.yul\":3518:3581   */\n      swap4\n      pop\n        /* \"#utility.yul\":3473:3591   */\n      pop\n        /* \"#utility.yul\":3630:3632   */\n      0x40\n        /* \"#utility.yul\":3656:3709   */\n      tag_186\n        /* \"#utility.yul\":3701:3708   */\n      dup8\n        /* \"#utility.yul\":3692:3698   */\n      dup3\n        /* \"#utility.yul\":3681:3690   */\n      dup9\n        /* \"#utility.yul\":3677:3699   */\n      add\n        /* \"#utility.yul\":3656:3709   */\n      tag_101\n      jump\t// in\n    tag_186:\n        /* \"#utility.yul\":3646:3709   */\n      swap3\n      pop\n        /* \"#utility.yul\":3601:3719   */\n      pop\n        /* \"#utility.yul\":3758:3760   */\n      0x60\n        /* \"#utility.yul\":3784:3837   */\n      tag_187\n        /* \"#utility.yul\":3829:3836   */\n      dup8\n        /* \"#utility.yul\":3820:3826   */\n      dup3\n        /* \"#utility.yul\":3809:3818   */\n      dup9\n        /* \"#utility.yul\":3805:3827   */\n      add\n        /* \"#utility.yul\":3784:3837   */\n      tag_101\n      jump\t// in\n    tag_187:\n        /* \"#utility.yul\":3774:3837   */\n      swap2\n      pop\n        /* \"#utility.yul\":3729:3847   */\n      pop\n        /* \"#utility.yul\":2909:3854   */\n      swap3\n      swap6\n      swap2\n      swap5\n      pop\n      swap3\n      pop\n      jump\t// out\n        /* \"#utility.yul\":3860:4189   */\n    tag_16:\n        /* \"#utility.yul\":3919:3925   */\n      0x00\n        /* \"#utility.yul\":3968:3970   */\n      0x20\n        /* \"#utility.yul\":3956:3965   */\n      dup3\n        /* \"#utility.yul\":3947:3954   */\n      dup5\n        /* \"#utility.yul\":3943:3966   */\n      sub\n        /* \"#utility.yul\":3939:3971   */\n      slt\n        /* \"#utility.yul\":3936:4055   */\n      iszero\n      tag_189\n      jumpi\n        /* \"#utility.yul\":3974:4053   */\n      tag_190\n      tag_87\n      jump\t// in\n    tag_190:\n        /* \"#utility.yul\":3936:4055   */\n    tag_189:\n        /* \"#utility.yul\":4094:4095   */\n      0x00\n        /* \"#utility.yul\":4119:4172   */\n      tag_191\n        /* \"#utility.yul\":4164:4171   */\n      dup5\n        /* \"#utility.yul\":4155:4161   */\n      dup3\n        /* \"#utility.yul\":4144:4153   */\n      dup6\n        /* \"#utility.yul\":4140:4162   */\n      add\n        /* \"#utility.yul\":4119:4172   */\n      tag_101\n      jump\t// in\n    tag_191:\n        /* \"#utility.yul\":4109:4172   */\n      swap2\n      pop\n        /* \"#utility.yul\":4065:4182   */\n      pop\n        /* \"#utility.yul\":3860:4189   */\n      swap3\n      swap2\n      pop\n      pop\n      jump\t// out\n        /* \"#utility.yul\":4195:4321   */\n    tag_102:\n        /* \"#utility.yul\":4232:4239   */\n      0x00\n        /* \"#utility.yul\":4272:4314   */\n      0xffffffffffffffffffffffffffffffffffffffff\n        /* \"#utility.yul\":4265:4270   */\n      dup3\n        /* \"#utility.yul\":4261:4315   */\n      and\n        /* \"#utility.yul\":4250:4315   */\n      swap1\n      pop\n        /* \"#utility.yul\":4195:4321   */\n      swap2\n      swap1\n      pop\n      jump\t// out\n        /* \"#utility.yul\":4327:4423   */\n    tag_103:\n        /* \"#utility.yul\":4364:4371   */\n      0x00\n        /* \"#utility.yul\":4393:4417   */\n      tag_194\n        /* \"#utility.yul\":4411:4416   */\n      dup3\n        /* \"#utility.yul\":4393:4417   */\n      tag_102\n      jump\t// in\n    tag_194:\n        /* \"#utility.yul\":4382:4417   */\n      swap1\n      pop\n        /* \"#utility.yul\":4327:4423   */\n      swap2\n      swap1\n      pop\n      jump\t// out\n        /* \"#utility.yul\":4429:4547   */\n    tag_104:\n        /* \"#utility.yul\":4516:4540   */\n      tag_196\n        /* \"#utility.yul\":4534:4539   */\n      dup2\n        /* \"#utility.yul\":4516:4540   */\n      tag_103\n      jump\t// in\n    tag_196:\n        /* \"#utility.yul\":4511:4514   */\n      dup3\n        /* \"#utility.yul\":4504:4541   */\n      mstore\n        /* \"#utility.yul\":4429:4547   */\n      pop\n      pop\n      jump\t// out\n        /* \"#utility.yul\":4553:4652   */\n    tag_105:\n        /* \"#utility.yul\":4605:4611   */\n      0x00\n        /* \"#utility.yul\":4639:4644   */\n      dup2\n        /* \"#utility.yul\":4633:4645   */\n      mload\n        /* \"#utility.yul\":4623:4645   */\n      swap1\n      pop\n        /* \"#utility.yul\":4553:4652   */\n      swap2\n      swap1\n      pop\n      jump\t// out\n        /* \"#utility.yul\":4658:4827   */\n    tag_106:\n        /* \"#utility.yul\":4742:4753   */\n      0x00\n        /* \"#utility.yul\":4776:4782   */\n      dup3\n        /* \"#utility.yul\":4771:4774   */\n      dup3\n        /* \"#utility.yul\":4764:4783   */\n      mstore\n        /* \"#utility.yul\":4816:4820   */\n      0x20\n        /* \"#utility.yul\":4811:4814   */\n      dup3\n        /* \"#utility.yul\":4807:4821   */\n      add\n        /* \"#utility.yul\":4792:4821   */\n      swap1\n      pop\n        /* \"#utility.yul\":4658:4827   */\n      swap3\n      swap2\n      pop\n      pop\n      jump\t// out\n        /* \"#utility.yul\":4833:5079   */\n    tag_107:\n        /* \"#utility.yul\":4914:4915   */\n      0x00\n        /* \"#utility.yul\":4924:5037   */\n    tag_200:\n        /* \"#utility.yul\":4938:4944   */\n      dup4\n        /* \"#utility.yul\":4935:4936   */\n      dup2\n        /* \"#utility.yul\":4932:4945   */\n      lt\n        /* \"#utility.yul\":4924:5037   */\n      iszero\n      tag_202\n      jumpi\n        /* \"#utility.yul\":5023:5024   */\n      dup1\n        /* \"#utility.yul\":5018:5021   */\n      dup3\n        /* \"#utility.yul\":5014:5025   */\n      add\n        /* \"#utility.yul\":5008:5026   */\n      mload\n        /* \"#utility.yul\":5004:5005   */\n      dup2\n        /* \"#utility.yul\":4999:5002   */\n      dup5\n        /* \"#utility.yul\":4995:5006   */\n      add\n        /* \"#utility.yul\":4988:5027   */\n      mstore\n        /* \"#utility.yul\":4960:4962   */\n      0x20\n        /* \"#utility.yul\":4957:4958   */\n      dup2\n        /* \"#utility.yul\":4953:4963   */\n      add\n        /* \"#utility.yul\":4948:4963   */\n      swap1\n      pop\n        /* \"#utility.yul\":4924:5037   */\n      jump(tag_200)\n    tag_202:\n        /* \"#utility.yul\":5071:5072   */\n      0x00\n        /* \"#utility.yul\":5062:5068   */\n      dup5\n        /* \"#utility.yul\":5057:5060   */\n      dup5\n        /* \"#utility.yul\":5053:5069   */\n      add\n        /* \"#utility.yul\":5046:5073   */\n      mstore\n        /* \"#utility.yul\":4895:5079   */\n      pop\n        /* \"#utility.yul\":4833:5079   */\n      pop\n      pop\n      pop\n      jump\t// out\n        /* \"#utility.yul\":5085:5462   */\n    tag_108:\n        /* \"#utility.yul\":5173:5176   */\n      0x00\n        /* \"#utility.yul\":5201:5240   */\n      tag_204\n        /* \"#utility.yul\":5234:5239   */\n      dup3\n        /* \"#utility.yul\":5201:5240   */\n      tag_105\n      jump\t// in\n    tag_204:\n        /* \"#utility.yul\":5256:5327   */\n      tag_205\n        /* \"#utility.yul\":5320:5326   */\n      dup2\n        /* \"#utility.yul\":5315:5318   */\n      dup6\n        /* \"#utility.yul\":5256:5327   */\n      tag_106\n      jump\t// in\n    tag_205:\n        /* \"#utility.yul\":5249:5327   */\n      swap4\n      pop\n        /* \"#utility.yul\":5336:5401   */\n      tag_206\n        /* \"#utility.yul\":5394:5400   */\n      dup2\n        /* \"#utility.yul\":5389:5392   */\n      dup6\n        /* \"#utility.yul\":5382:5386   */\n      0x20\n        /* \"#utility.yul\":5375:5380   */\n      dup7\n        /* \"#utility.yul\":5371:5387   */\n      add\n        /* \"#utility.yul\":5336:5401   */\n      tag_107\n      jump\t// in\n    tag_206:\n        /* \"#utility.yul\":5426:5455   */\n      tag_207\n        /* \"#utility.yul\":5448:5454   */\n      dup2\n        /* \"#utility.yul\":5426:5455   */\n      tag_91\n      jump\t// in\n    tag_207:\n        /* \"#utility.yul\":5421:5424   */\n      dup5\n        /* \"#utility.yul\":5417:5456   */\n      add\n        /* \"#utility.yul\":5410:5456   */\n      swap2\n      pop\n        /* \"#utility.yul\":5177:5462   */\n      pop\n        /* \"#utility.yul\":5085:5462   */\n      swap3\n      swap2\n      pop\n      pop\n      jump\t// out\n        /* \"#utility.yul\":5468:5586   */\n    tag_109:\n        /* \"#utility.yul\":5555:5579   */\n      tag_209\n        /* \"#utility.yul\":5573:5578   */\n      dup2\n        /* \"#utility.yul\":5555:5579   */\n      tag_99\n      jump\t// in\n    tag_209:\n        /* \"#utility.yul\":5550:5553   */\n      dup3\n        /* \"#utility.yul\":5543:5580   */\n      mstore\n        /* \"#utility.yul\":5468:5586   */\n      pop\n      pop\n      jump\t// out\n        /* \"#utility.yul\":5592:6458   */\n    tag_19:\n        /* \"#utility.yul\":5845:5849   */\n      0x00\n        /* \"#utility.yul\":5883:5886   */\n      0xc0\n        /* \"#utility.yul\":5872:5881   */\n      dup3\n        /* \"#utility.yul\":5868:5887   */\n      add\n        /* \"#utility.yul\":5860:5887   */\n      swap1\n      pop\n        /* \"#utility.yul\":5897:5968   */\n      tag_211\n        /* \"#utility.yul\":5965:5966   */\n      0x00\n        /* \"#utility.yul\":5954:5963   */\n      dup4\n        /* \"#utility.yul\":5950:5967   */\n      add\n        /* \"#utility.yul\":5941:5947   */\n      dup10\n        /* \"#utility.yul\":5897:5968   */\n      tag_104\n      jump\t// in\n    tag_211:\n        /* \"#utility.yul\":6015:6024   */\n      dup2\n        /* \"#utility.yul\":6009:6013   */\n      dup2\n        /* \"#utility.yul\":6005:6025   */\n      sub\n        /* \"#utility.yul\":6000:6002   */\n      0x20\n        /* \"#utility.yul\":5989:5998   */\n      dup4\n        /* \"#utility.yul\":5985:6003   */\n      add\n        /* \"#utility.yul\":5978:6026   */\n      mstore\n        /* \"#utility.yul\":6043:6121   */\n      tag_212\n        /* \"#utility.yul\":6116:6120   */\n      dup2\n        /* \"#utility.yul\":6107:6113   */\n      dup9\n        /* \"#utility.yul\":6043:6121   */\n      tag_108\n      jump\t// in\n    tag_212:\n        /* \"#utility.yul\":6035:6121   */\n      swap1\n      pop\n        /* \"#utility.yul\":6131:6203   */\n      tag_213\n        /* \"#utility.yul\":6199:6201   */\n      0x40\n        /* \"#utility.yul\":6188:6197   */\n      dup4\n        /* \"#utility.yul\":6184:6202   */\n      add\n        /* \"#utility.yul\":6175:6181   */\n      dup8\n        /* \"#utility.yul\":6131:6203   */\n      tag_109\n      jump\t// in\n    tag_213:\n        /* \"#utility.yul\":6213:6285   */\n      tag_214\n        /* \"#utility.yul\":6281:6283   */\n      0x60\n        /* \"#utility.yul\":6270:6279   */\n      dup4\n        /* \"#utility.yul\":6266:6284   */\n      add\n        /* \"#utility.yul\":6257:6263   */\n      dup7\n        /* \"#utility.yul\":6213:6285   */\n      tag_109\n      jump\t// in\n    tag_214:\n        /* \"#utility.yul\":6295:6368   */\n      tag_215\n        /* \"#utility.yul\":6363:6366   */\n      0x80\n        /* \"#utility.yul\":6352:6361   */\n      dup4\n        /* \"#utility.yul\":6348:6367   */\n      add\n        /* \"#utility.yul\":6339:6345   */\n      dup6\n        /* \"#utility.yul\":6295:6368   */\n      tag_109\n      jump\t// in\n    tag_215:\n        /* \"#utility.yul\":6378:6451   */\n      tag_216\n        /* \"#utility.yul\":6446:6449   */\n      0xa0\n        /* \"#utility.yul\":6435:6444   */\n      dup4\n        /* \"#utility.yul\":6431:6450   */\n      add\n        /* \"#utility.yul\":6422:6428   */\n      dup5\n        /* \"#utility.yul\":6378:6451   */\n      tag_109\n      jump\t// in\n    tag_216:\n        /* \"#utility.yul\":5592:6458   */\n      swap8\n      swap7\n      pop\n      pop\n      pop\n      pop\n      pop\n      pop\n      pop\n      jump\t// out\n        /* \"#utility.yul\":6464:6938   */\n    tag_22:\n        /* \"#utility.yul\":6532:6538   */\n      0x00\n        /* \"#utility.yul\":6540:6546   */\n      dup1\n        /* \"#utility.yul\":6589:6591   */\n      0x40\n        /* \"#utility.yul\":6577:6586   */\n      dup4\n        /* \"#utility.yul\":6568:6575   */\n      dup6\n        /* \"#utility.yul\":6564:6587   */\n      sub\n        /* \"#utility.yul\":6560:6592   */\n      slt\n        /* \"#utility.yul\":6557:6676   */\n      iszero\n      tag_218\n      jumpi\n        /* \"#utility.yul\":6595:6674   */\n      tag_219\n      tag_87\n      jump\t// in\n    tag_219:\n        /* \"#utility.yul\":6557:6676   */\n    tag_218:\n        /* \"#utility.yul\":6715:6716   */\n      0x00\n        /* \"#utility.yul\":6740:6793   */\n      tag_220\n        /* \"#utility.yul\":6785:6792   */\n      dup6\n        /* \"#utility.yul\":6776:6782   */\n      dup3\n        /* \"#utility.yul\":6765:6774   */\n      dup7\n        /* \"#utility.yul\":6761:6783   */\n      add\n        /* \"#utility.yul\":6740:6793   */\n      tag_101\n      jump\t// in\n    tag_220:\n        /* \"#utility.yul\":6730:6793   */\n      swap3\n      pop\n        /* \"#utility.yul\":6686:6803   */\n      pop\n        /* \"#utility.yul\":6842:6844   */\n      0x20\n        /* \"#utility.yul\":6868:6921   */\n      tag_221\n        /* \"#utility.yul\":6913:6920   */\n      dup6\n        /* \"#utility.yul\":6904:6910   */\n      dup3\n        /* \"#utility.yul\":6893:6902   */\n      dup7\n        /* \"#utility.yul\":6889:6911   */\n      add\n        /* \"#utility.yul\":6868:6921   */\n      tag_101\n      jump\t// in\n    tag_221:\n        /* \"#utility.yul\":6858:6921   */\n      swap2\n      pop\n        /* \"#utility.yul\":6813:6931   */\n      pop\n        /* \"#utility.yul\":6464:6938   */\n      swap3\n      pop\n      swap3\n      swap1\n      pop\n      jump\t// out\n        /* \"#utility.yul\":6944:7166   */\n    tag_28:\n        /* \"#utility.yul\":7037:7041   */\n      0x00\n        /* \"#utility.yul\":7075:7077   */\n      0x20\n        /* \"#utility.yul\":7064:7073   */\n      dup3\n        /* \"#utility.yul\":7060:7078   */\n      add\n        /* \"#utility.yul\":7052:7078   */\n      swap1\n      pop\n        /* \"#utility.yul\":7088:7159   */\n      tag_223\n        /* \"#utility.yul\":7156:7157   */\n      0x00\n        /* \"#utility.yul\":7145:7154   */\n      dup4\n        /* \"#utility.yul\":7141:7158   */\n      add\n        /* \"#utility.yul\":7132:7138   */\n      dup5\n        /* \"#utility.yul\":7088:7159   */\n      tag_109\n      jump\t// in\n    tag_223:\n        /* \"#utility.yul\":6944:7166   */\n      swap3\n      swap2\n      pop\n      pop\n      jump\t// out\n        /* \"#utility.yul\":7172:7294   */\n    tag_110:\n        /* \"#utility.yul\":7245:7269   */\n      tag_225\n        /* \"#utility.yul\":7263:7268   */\n      dup2\n        /* \"#utility.yul\":7245:7269   */\n      tag_103\n      jump\t// in\n    tag_225:\n        /* \"#utility.yul\":7238:7243   */\n      dup2\n        /* \"#utility.yul\":7235:7270   */\n      eq\n        /* \"#utility.yul\":7225:7288   */\n      tag_226\n      jumpi\n        /* \"#utility.yul\":7284:7285   */\n      0x00\n        /* \"#utility.yul\":7281:7282   */\n      dup1\n        /* \"#utility.yul\":7274:7286   */\n      revert\n        /* \"#utility.yul\":7225:7288   */\n    tag_226:\n        /* \"#utility.yul\":7172:7294   */\n      pop\n      jump\t// out\n        /* \"#utility.yul\":7300:7439   */\n    tag_111:\n        /* \"#utility.yul\":7346:7351   */\n      0x00\n        /* \"#utility.yul\":7384:7390   */\n      dup2\n        /* \"#utility.yul\":7371:7391   */\n      calldataload\n        /* \"#utility.yul\":7362:7391   */\n      swap1\n      pop\n        /* \"#utility.yul\":7400:7433   */\n      tag_228\n        /* \"#utility.yul\":7427:7432   */\n      dup2\n        /* \"#utility.yul\":7400:7433   */\n      tag_110\n      jump\t// in\n    tag_228:\n        /* \"#utility.yul\":7300:7439   */\n      swap3\n      swap2\n      pop\n      pop\n      jump\t// out\n        /* \"#utility.yul\":7445:7919   */\n    tag_32:\n        /* \"#utility.yul\":7513:7519   */\n      0x00\n        /* \"#utility.yul\":7521:7527   */\n      dup1\n        /* \"#utility.yul\":7570:7572   */\n      0x40\n        /* \"#utility.yul\":7558:7567   */\n      dup4\n        /* \"#utility.yul\":7549:7556   */\n      dup6\n        /* \"#utility.yul\":7545:7568   */\n      sub\n        /* \"#utility.yul\":7541:7573   */\n      slt\n        /* \"#utility.yul\":7538:7657   */\n      iszero\n      tag_230\n      jumpi\n        /* \"#utility.yul\":7576:7655   */\n      tag_231\n      tag_87\n      jump\t// in\n    tag_231:\n        /* \"#utility.yul\":7538:7657   */\n    tag_230:\n        /* \"#utility.yul\":7696:7697   */\n      0x00\n        /* \"#utility.yul\":7721:7774   */\n      tag_232\n        /* \"#utility.yul\":7766:7773   */\n      dup6\n        /* \"#utility.yul\":7757:7763   */\n      dup3\n        /* \"#utility.yul\":7746:7755   */\n      dup7\n        /* \"#utility.yul\":7742:7764   */\n      add\n        /* \"#utility.yul\":7721:7774   */\n      tag_111\n      jump\t// in\n    tag_232:\n        /* \"#utility.yul\":7711:7774   */\n      swap3\n      pop\n        /* \"#utility.yul\":7667:7784   */\n      pop\n        /* \"#utility.yul\":7823:7825   */\n      0x20\n        /* \"#utility.yul\":7849:7902   */\n      tag_233\n        /* \"#utility.yul\":7894:7901   */\n      dup6\n        /* \"#utility.yul\":7885:7891   */\n      dup3\n        /* \"#utility.yul\":7874:7883   */\n      dup7\n        /* \"#utility.yul\":7870:7892   */\n      add\n        /* \"#utility.yul\":7849:7902   */\n      tag_101\n      jump\t// in\n    tag_233:\n        /* \"#utility.yul\":7839:7902   */\n      swap2\n      pop\n        /* \"#utility.yul\":7794:7912   */\n      pop\n        /* \"#utility.yul\":7445:7919   */\n      swap3\n      pop\n      swap3\n      swap1\n      pop\n      jump\t// out\n        /* \"#utility.yul\":7925:8544   */\n    tag_38:\n        /* \"#utility.yul\":8002:8008   */\n      0x00\n        /* \"#utility.yul\":8010:8016   */\n      dup1\n        /* \"#utility.yul\":8018:8024   */\n      0x00\n        /* \"#utility.yul\":8067:8069   */\n      0x60\n        /* \"#utility.yul\":8055:8064   */\n      dup5\n        /* \"#utility.yul\":8046:8053   */\n      dup7\n        /* \"#utility.yul\":8042:8065   */\n      sub\n        /* \"#utility.yul\":8038:8070   */\n      slt\n        /* \"#utility.yul\":8035:8154   */\n      iszero\n      tag_235\n      jumpi\n        /* \"#utility.yul\":8073:8152   */\n      tag_236\n      tag_87\n      jump\t// in\n    tag_236:\n        /* \"#utility.yul\":8035:8154   */\n    tag_235:\n        /* \"#utility.yul\":8193:8194   */\n      0x00\n        /* \"#utility.yul\":8218:8271   */\n      tag_237\n        /* \"#utility.yul\":8263:8270   */\n      dup7\n        /* \"#utility.yul\":8254:8260   */\n      dup3\n        /* \"#utility.yul\":8243:8252   */\n      dup8\n        /* \"#utility.yul\":8239:8261   */\n      add\n        /* \"#utility.yul\":8218:8271   */\n      tag_101\n      jump\t// in\n    tag_237:\n        /* \"#utility.yul\":8208:8271   */\n      swap4\n      pop\n        /* \"#utility.yul\":8164:8281   */\n      pop\n        /* \"#utility.yul\":8320:8322   */\n      0x20\n        /* \"#utility.yul\":8346:8399   */\n      tag_238\n        /* \"#utility.yul\":8391:8398   */\n      dup7\n        /* \"#utility.yul\":8382:8388   */\n      dup3\n        /* \"#utility.yul\":8371:8380   */\n      dup8\n        /* \"#utility.yul\":8367:8389   */\n      add\n        /* \"#utility.yul\":8346:8399   */\n      tag_101\n      jump\t// in\n    tag_238:\n        /* \"#utility.yul\":8336:8399   */\n      swap3\n      pop\n        /* \"#utility.yul\":8291:8409   */\n      pop\n        /* \"#utility.yul\":8448:8450   */\n      0x40\n        /* \"#utility.yul\":8474:8527   */\n      tag_239\n        /* \"#utility.yul\":8519:8526   */\n      dup7\n        /* \"#utility.yul\":8510:8516   */\n      dup3\n        /* \"#utility.yul\":8499:8508   */\n      dup8\n        /* \"#utility.yul\":8495:8517   */\n      add\n        /* \"#utility.yul\":8474:8527   */\n      tag_111\n      jump\t// in\n    tag_239:\n        /* \"#utility.yul\":8464:8527   */\n      swap2\n      pop\n        /* \"#utility.yul\":8419:8537   */\n      pop\n        /* \"#utility.yul\":7925:8544   */\n      swap3\n      pop\n      swap3\n      pop\n      swap3\n      jump\t// out\n        /* \"#utility.yul\":8550:8770   */\n    tag_112:\n        /* \"#utility.yul\":8690:8724   */\n      0x796f752063616e206f7267616e697a65206576656e7420666f72206675747572\n        /* \"#utility.yul\":8686:8687   */\n      0x00\n        /* \"#utility.yul\":8678:8684   */\n      dup3\n        /* \"#utility.yul\":8674:8688   */\n      add\n        /* \"#utility.yul\":8667:8725   */\n      mstore\n        /* \"#utility.yul\":8759:8762   */\n      0x6500000000000000000000000000000000000000000000000000000000000000\n        /* \"#utility.yul\":8754:8756   */\n      0x20\n        /* \"#utility.yul\":8746:8752   */\n      dup3\n        /* \"#utility.yul\":8742:8757   */\n      add\n        /* \"#utility.yul\":8735:8763   */\n      mstore\n        /* \"#utility.yul\":8550:8770   */\n      pop\n      jump\t// out\n        /* \"#utility.yul\":8776:9142   */\n    tag_113:\n        /* \"#utility.yul\":8918:8921   */\n      0x00\n        /* \"#utility.yul\":8939:9006   */\n      tag_242\n        /* \"#utility.yul\":9003:9005   */\n      0x21\n        /* \"#utility.yul\":8998:9001   */\n      dup4\n        /* \"#utility.yul\":8939:9006   */\n      tag_106\n      jump\t// in\n    tag_242:\n        /* \"#utility.yul\":8932:9006   */\n      swap2\n      pop\n        /* \"#utility.yul\":9015:9108   */\n      tag_243\n        /* \"#utility.yul\":9104:9107   */\n      dup3\n        /* \"#utility.yul\":9015:9108   */\n      tag_112\n      jump\t// in\n    tag_243:\n        /* \"#utility.yul\":9133:9135   */\n      0x40\n        /* \"#utility.yul\":9128:9131   */\n      dup3\n        /* \"#utility.yul\":9124:9136   */\n      add\n        /* \"#utility.yul\":9117:9136   */\n      swap1\n      pop\n        /* \"#utility.yul\":8776:9142   */\n      swap2\n      swap1\n      pop\n      jump\t// out\n        /* \"#utility.yul\":9148:9567   */\n    tag_43:\n        /* \"#utility.yul\":9314:9318   */\n      0x00\n        /* \"#utility.yul\":9352:9354   */\n      0x20\n        /* \"#utility.yul\":9341:9350   */\n      dup3\n        /* \"#utility.yul\":9337:9355   */\n      add\n        /* \"#utility.yul\":9329:9355   */\n      swap1\n      pop\n        /* \"#utility.yul\":9401:9410   */\n      dup2\n        /* \"#utility.yul\":9395:9399   */\n      dup2\n        /* \"#utility.yul\":9391:9411   */\n      sub\n        /* \"#utility.yul\":9387:9388   */\n      0x00\n        /* \"#utility.yul\":9376:9385   */\n      dup4\n        /* \"#utility.yul\":9372:9389   */\n      add\n        /* \"#utility.yul\":9365:9412   */\n      mstore\n        /* \"#utility.yul\":9429:9560   */\n      tag_245\n        /* \"#utility.yul\":9555:9559   */\n      dup2\n        /* \"#utility.yul\":9429:9560   */\n      tag_113\n      jump\t// in\n    tag_245:\n        /* \"#utility.yul\":9421:9560   */\n      swap1\n      pop\n        /* \"#utility.yul\":9148:9567   */\n      swap2\n      swap1\n      pop\n      jump\t// out\n        /* \"#utility.yul\":9573:9818   */\n    tag_114:\n        /* \"#utility.yul\":9713:9747   */\n      0x796f752063616e206f7267616e697a65206576656e74206f6e6c792069662079\n        /* \"#utility.yul\":9709:9710   */\n      0x00\n        /* \"#utility.yul\":9701:9707   */\n      dup3\n        /* \"#utility.yul\":9697:9711   */\n      add\n        /* \"#utility.yul\":9690:9748   */\n      mstore\n        /* \"#utility.yul\":9782:9810   */\n      0x6f752063616e206d6f7265207468616e2030207469636b657473000000000000\n        /* \"#utility.yul\":9777:9779   */\n      0x20\n        /* \"#utility.yul\":9769:9775   */\n      dup3\n        /* \"#utility.yul\":9765:9780   */\n      add\n        /* \"#utility.yul\":9758:9811   */\n      mstore\n        /* \"#utility.yul\":9573:9818   */\n      pop\n      jump\t// out\n        /* \"#utility.yul\":9824:10190   */\n    tag_115:\n        /* \"#utility.yul\":9966:9969   */\n      0x00\n        /* \"#utility.yul\":9987:10054   */\n      tag_248\n        /* \"#utility.yul\":10051:10053   */\n      0x3a\n        /* \"#utility.yul\":10046:10049   */\n      dup4\n        /* \"#utility.yul\":9987:10054   */\n      tag_106\n      jump\t// in\n    tag_248:\n        /* \"#utility.yul\":9980:10054   */\n      swap2\n      pop\n        /* \"#utility.yul\":10063:10156   */\n      tag_249\n        /* \"#utility.yul\":10152:10155   */\n      dup3\n        /* \"#utility.yul\":10063:10156   */\n      tag_114\n      jump\t// in\n    tag_249:\n        /* \"#utility.yul\":10181:10183   */\n      0x40\n        /* \"#utility.yul\":10176:10179   */\n      dup3\n        /* \"#utility.yul\":10172:10184   */\n      add\n        /* \"#utility.yul\":10165:10184   */\n      swap1\n      pop\n        /* \"#utility.yul\":9824:10190   */\n      swap2\n      swap1\n      pop\n      jump\t// out\n        /* \"#utility.yul\":10196:10615   */\n    tag_46:\n        /* \"#utility.yul\":10362:10366   */\n      0x00\n        /* \"#utility.yul\":10400:10402   */\n      0x20\n        /* \"#utility.yul\":10389:10398   */\n      dup3\n        /* \"#utility.yul\":10385:10403   */\n      add\n        /* \"#utility.yul\":10377:10403   */\n      swap1\n      pop\n        /* \"#utility.yul\":10449:10458   */\n      dup2\n        /* \"#utility.yul\":10443:10447   */\n      dup2\n        /* \"#utility.yul\":10439:10459   */\n      sub\n        /* \"#utility.yul\":10435:10436   */\n      0x00\n        /* \"#utility.yul\":10424:10433   */\n      dup4\n        /* \"#utility.yul\":10420:10437   */\n      add\n        /* \"#utility.yul\":10413:10460   */\n      mstore\n        /* \"#utility.yul\":10477:10608   */\n      tag_251\n        /* \"#utility.yul\":10603:10607   */\n      dup2\n        /* \"#utility.yul\":10477:10608   */\n      tag_115\n      jump\t// in\n    tag_251:\n        /* \"#utility.yul\":10469:10608   */\n      swap1\n      pop\n        /* \"#utility.yul\":10196:10615   */\n      swap2\n      swap1\n      pop\n      jump\t// out\n        /* \"#utility.yul\":10621:10801   */\n    tag_116:\n        /* \"#utility.yul\":10669:10746   */\n      0x4e487b7100000000000000000000000000000000000000000000000000000000\n        /* \"#utility.yul\":10666:10667   */\n      0x00\n        /* \"#utility.yul\":10659:10747   */\n      mstore\n        /* \"#utility.yul\":10766:10770   */\n      0x22\n        /* \"#utility.yul\":10763:10764   */\n      0x04\n        /* \"#utility.yul\":10756:10771   */\n      mstore\n        /* \"#utility.yul\":10790:10794   */\n      0x24\n        /* \"#utility.yul\":10787:10788   */\n      0x00\n        /* \"#utility.yul\":10780:10795   */\n      revert\n        /* \"#utility.yul\":10807:11127   */\n    tag_52:\n        /* \"#utility.yul\":10851:10857   */\n      0x00\n        /* \"#utility.yul\":10888:10889   */\n      0x02\n        /* \"#utility.yul\":10882:10886   */\n      dup3\n        /* \"#utility.yul\":10878:10890   */\n      div\n        /* \"#utility.yul\":10868:10890   */\n      swap1\n      pop\n        /* \"#utility.yul\":10935:10936   */\n      0x01\n        /* \"#utility.yul\":10929:10933   */\n      dup3\n        /* \"#utility.yul\":10925:10937   */\n      and\n        /* \"#utility.yul\":10956:10974   */\n      dup1\n        /* \"#utility.yul\":10946:11027   */\n      tag_254\n      jumpi\n        /* \"#utility.yul\":11012:11016   */\n      0x7f\n        /* \"#utility.yul\":11004:11010   */\n      dup3\n        /* \"#utility.yul\":11000:11017   */\n      and\n        /* \"#utility.yul\":10990:11017   */\n      swap2\n      pop\n        /* \"#utility.yul\":10946:11027   */\n    tag_254:\n        /* \"#utility.yul\":11074:11076   */\n      0x20\n        /* \"#utility.yul\":11066:11072   */\n      dup3\n        /* \"#utility.yul\":11063:11077   */\n      lt\n        /* \"#utility.yul\":11043:11061   */\n      dup2\n        /* \"#utility.yul\":11040:11078   */\n      sub\n        /* \"#utility.yul\":11037:11121   */\n      tag_255\n      jumpi\n        /* \"#utility.yul\":11093:11111   */\n      tag_256\n      tag_116\n      jump\t// in\n    tag_256:\n        /* \"#utility.yul\":11037:11121   */\n    tag_255:\n        /* \"#utility.yul\":10858:11127   */\n      pop\n        /* \"#utility.yul\":10807:11127   */\n      swap2\n      swap1\n      pop\n      jump\t// out\n        /* \"#utility.yul\":11133:11274   */\n    tag_117:\n        /* \"#utility.yul\":11182:11186   */\n      0x00\n        /* \"#utility.yul\":11205:11208   */\n      dup2\n        /* \"#utility.yul\":11197:11208   */\n      swap1\n      pop\n        /* \"#utility.yul\":11228:11231   */\n      dup2\n        /* \"#utility.yul\":11225:11226   */\n      0x00\n        /* \"#utility.yul\":11218:11232   */\n      mstore\n        /* \"#utility.yul\":11262:11266   */\n      0x20\n        /* \"#utility.yul\":11259:11260   */\n      0x00\n        /* \"#utility.yul\":11249:11267   */\n      keccak256\n        /* \"#utility.yul\":11241:11267   */\n      swap1\n      pop\n        /* \"#utility.yul\":11133:11274   */\n      swap2\n      swap1\n      pop\n      jump\t// out\n        /* \"#utility.yul\":11280:11373   */\n    tag_118:\n        /* \"#utility.yul\":11317:11323   */\n      0x00\n        /* \"#utility.yul\":11364:11366   */\n      0x20\n        /* \"#utility.yul\":11359:11361   */\n      0x1f\n        /* \"#utility.yul\":11352:11357   */\n      dup4\n        /* \"#utility.yul\":11348:11362   */\n      add\n        /* \"#utility.yul\":11344:11367   */\n      div\n        /* \"#utility.yul\":11334:11367   */\n      swap1\n      pop\n        /* \"#utility.yul\":11280:11373   */\n      swap2\n      swap1\n      pop\n      jump\t// out\n        /* \"#utility.yul\":11379:11486   */\n    tag_119:\n        /* \"#utility.yul\":11423:11431   */\n      0x00\n        /* \"#utility.yul\":11473:11478   */\n      dup3\n        /* \"#utility.yul\":11467:11471   */\n      dup3\n        /* \"#utility.yul\":11463:11479   */\n      shl\n        /* \"#utility.yul\":11442:11479   */\n      swap1\n      pop\n        /* \"#utility.yul\":11379:11486   */\n      swap3\n      swap2\n      pop\n      pop\n      jump\t// out\n        /* \"#utility.yul\":11492:11885   */\n    tag_120:\n        /* \"#utility.yul\":11561:11567   */\n      0x00\n        /* \"#utility.yul\":11611:11612   */\n      0x08\n        /* \"#utility.yul\":11599:11609   */\n      dup4\n        /* \"#utility.yul\":11595:11613   */\n      mul\n        /* \"#utility.yul\":11634:11731   */\n      tag_261\n        /* \"#utility.yul\":11664:11730   */\n      0xffffffffffffffffffffffffffffffffffffffffffffffffffffffffffffffff\n        /* \"#utility.yul\":11653:11662   */\n      dup3\n        /* \"#utility.yul\":11634:11731   */\n      tag_119\n      jump\t// in\n    tag_261:\n        /* \"#utility.yul\":11752:11791   */\n      tag_262\n        /* \"#utility.yul\":11782:11790   */\n      dup7\n        /* \"#utility.yul\":11771:11780   */\n      dup4\n        /* \"#utility.yul\":11752:11791   */\n      tag_119\n      jump\t// in\n    tag_262:\n        /* \"#utility.yul\":11740:11791   */\n      swap6\n      pop\n        /* \"#utility.yul\":11824:11828   */\n      dup1\n        /* \"#utility.yul\":11820:11829   */\n      not\n        /* \"#utility.yul\":11813:11818   */\n      dup5\n        /* \"#utility.yul\":11809:11830   */\n      and\n        /* \"#utility.yul\":11800:11830   */\n      swap4\n      pop\n        /* \"#utility.yul\":11873:11877   */\n      dup1\n        /* \"#utility.yul\":11863:11871   */\n      dup7\n        /* \"#utility.yul\":11859:11878   */\n      and\n        /* \"#utility.yul\":11852:11857   */\n      dup5\n        /* \"#utility.yul\":11849:11879   */\n      or\n        /* \"#utility.yul\":11839:11879   */\n      swap3\n      pop\n        /* \"#utility.yul\":11568:11885   */\n      pop\n      pop\n        /* \"#utility.yul\":11492:11885   */\n      swap4\n      swap3\n      pop\n      pop\n      pop\n      jump\t// out\n        /* \"#utility.yul\":11891:11951   */\n    tag_121:\n        /* \"#utility.yul\":11919:11922   */\n      0x00\n        /* \"#utility.yul\":11940:11945   */\n      dup2\n        /* \"#utility.yul\":11933:11945   */\n      swap1\n      pop\n        /* \"#utility.yul\":11891:11951   */\n      swap2\n      swap1\n      pop\n      jump\t// out\n        /* \"#utility.yul\":11957:12099   */\n    tag_122:\n        /* \"#utility.yul\":12007:12016   */\n      0x00\n        /* \"#utility.yul\":12040:12093   */\n      tag_265\n        /* \"#utility.yul\":12058:12092   */\n      tag_266\n        /* \"#utility.yul\":12067:12091   */\n      tag_267\n        /* \"#utility.yul\":12085:12090   */\n      dup5\n        /* \"#utility.yul\":12067:12091   */\n      tag_99\n      jump\t// in\n    tag_267:\n        /* \"#utility.yul\":12058:12092   */\n      tag_121\n      jump\t// in\n    tag_266:\n        /* \"#utility.yul\":12040:12093   */\n      tag_99\n      jump\t// in\n    tag_265:\n        /* \"#utility.yul\":12027:12093   */\n      swap1\n      pop\n        /* \"#utility.yul\":11957:12099   */\n      swap2\n      swap1\n      pop\n      jump\t// out\n        /* \"#utility.yul\":12105:12180   */\n    tag_123:\n        /* \"#utility.yul\":12148:12151   */\n      0x00\n        /* \"#utility.yul\":12169:12174   */\n      dup2\n        /* \"#utility.yul\":12162:12174   */\n      swap1\n      pop\n        /* \"#utility.yul\":12105:12180   */\n      swap2\n      swap1\n      pop\n      jump\t// out\n        /* \"#utility.yul\":12186:12455   */\n    tag_124:\n        /* \"#utility.yul\":12296:12335   */\n      tag_270\n        /* \"#utility.yul\":12327:12334   */\n      dup4\n        /* \"#utility.yul\":12296:12335   */\n      tag_122\n      jump\t// in\n    tag_270:\n        /* \"#utility.yul\":12357:12448   */\n      tag_271\n        /* \"#utility.yul\":12406:12447   */\n      tag_272\n        /* \"#utility.yul\":12430:12446   */\n      dup3\n        /* \"#utility.yul\":12406:12447   */\n      tag_123\n      jump\t// in\n    tag_272:\n        /* \"#utility.yul\":12398:12404   */\n      dup5\n        /* \"#utility.yul\":12391:12395   */\n      dup5\n        /* \"#utility.yul\":12385:12396   */\n      sload\n        /* \"#utility.yul\":12357:12448   */\n      tag_120\n      jump\t// in\n    tag_271:\n        /* \"#utility.yul\":12351:12355   */\n      dup3\n        /* \"#utility.yul\":12344:12449   */\n      sstore\n        /* \"#utility.yul\":12262:12455   */\n      pop\n        /* \"#utility.yul\":12186:12455   */\n      pop\n      pop\n      pop\n      jump\t// out\n        /* \"#utility.yul\":12461:12534   */\n    tag_125:\n        /* \"#utility.yul\":12506:12509   */\n      0x00\n        /* \"#utility.yul\":12461:12534   */\n      swap1\n      jump\t// out\n        /* \"#utility.yul\":12540:12729   */\n    tag_126:\n        /* \"#utility.yul\":12617:12649   */\n      tag_275\n      tag_125\n      jump\t// in\n    tag_275:\n        /* \"#utility.yul\":12658:12723   */\n      tag_276\n        /* \"#utility.yul\":12716:12722   */\n      dup2\n        /* \"#utility.yul\":12708:12714   */\n      dup5\n        /* \"#utility.yul\":12702:12706   */\n      dup5\n        /* \"#utility.yul\":12658:12723   */\n      tag_124\n      jump\t// in\n    tag_276:\n        /* \"#utility.yul\":12593:12729   */\n      pop\n        /* \"#utility.yul\":12540:12729   */\n      pop\n      pop\n      jump\t// out\n        /* \"#utility.yul\":12735:12921   */\n    tag_127:\n        /* \"#utility.yul\":12795:12915   */\n    tag_278:\n        /* \"#utility.yul\":12812:12815   */\n      dup2\n        /* \"#utility.yul\":12805:12810   */\n      dup2\n        /* \"#utility.yul\":12802:12816   */\n      lt\n        /* \"#utility.yul\":12795:12915   */\n      iszero\n      tag_280\n      jumpi\n        /* \"#utility.yul\":12866:12905   */\n      tag_281\n        /* \"#utility.yul\":12903:12904   */\n      0x00\n        /* \"#utility.yul\":12896:12901   */\n      dup3\n        /* \"#utility.yul\":12866:12905   */\n      tag_126\n      jump\t// in\n    tag_281:\n        /* \"#utility.yul\":12839:12840   */\n      0x01\n        /* \"#utility.yul\":12832:12837   */\n      dup2\n        /* \"#utility.yul\":12828:12841   */\n      add\n        /* \"#utility.yul\":12819:12841   */\n      swap1\n      pop\n        /* \"#utility.yul\":12795:12915   */\n      jump(tag_278)\n    tag_280:\n        /* \"#utility.yul\":12735:12921   */\n      pop\n      pop\n      jump\t// out\n        /* \"#utility.yul\":12927:13470   */\n    tag_128:\n        /* \"#utility.yul\":13028:13030   */\n      0x1f\n        /* \"#utility.yul\":13023:13026   */\n      dup3\n        /* \"#utility.yul\":13020:13031   */\n      gt\n        /* \"#utility.yul\":13017:13463   */\n      iszero\n      tag_283\n      jumpi\n        /* \"#utility.yul\":13062:13100   */\n      tag_284\n        /* \"#utility.yul\":13094:13099   */\n      dup2\n        /* \"#utility.yul\":13062:13100   */\n      tag_117\n      jump\t// in\n    tag_284:\n        /* \"#utility.yul\":13146:13175   */\n      tag_285\n        /* \"#utility.yul\":13164:13174   */\n      dup5\n        /* \"#utility.yul\":13146:13175   */\n      tag_118\n      jump\t// in\n    tag_285:\n        /* \"#utility.yul\":13136:13144   */\n      dup2\n        /* \"#utility.yul\":13132:13176   */\n      add\n        /* \"#utility.yul\":13329:13331   */\n      0x20\n        /* \"#utility.yul\":13317:13327   */\n      dup6\n        /* \"#utility.yul\":13314:13332   */\n      lt\n        /* \"#utility.yul\":13311:13360   */\n      iszero\n      tag_286\n      jumpi\n        /* \"#utility.yul\":13350:13358   */\n      dup2\n        /* \"#utility.yul\":13335:13358   */\n      swap1\n      pop\n        /* \"#utility.yul\":13311:13360   */\n    tag_286:\n        /* \"#utility.yul\":13373:13453   */\n      tag_287\n        /* \"#utility.yul\":13429:13451   */\n      tag_288\n        /* \"#utility.yul\":13447:13450   */\n      dup6\n        /* \"#utility.yul\":13429:13451   */\n      tag_118\n      jump\t// in\n    tag_288:\n        /* \"#utility.yul\":13419:13427   */\n      dup4\n        /* \"#utility.yul\":13415:13452   */\n      add\n        /* \"#utility.yul\":13402:13413   */\n      dup3\n        /* \"#utility.yul\":13373:13453   */\n      tag_127\n      jump\t// in\n    tag_287:\n        /* \"#utility.yul\":13032:13463   */\n      pop\n      pop\n        /* \"#utility.yul\":13017:13463   */\n    tag_283:\n        /* \"#utility.yul\":12927:13470   */\n      pop\n      pop\n      pop\n      jump\t// out\n        /* \"#utility.yul\":13476:13593   */\n    tag_129:\n        /* \"#utility.yul\":13530:13538   */\n      0x00\n        /* \"#utility.yul\":13580:13585   */\n      dup3\n        /* \"#utility.yul\":13574:13578   */\n      dup3\n        /* \"#utility.yul\":13570:13586   */\n      shr\n        /* \"#utility.yul\":13549:13586   */\n      swap1\n      pop\n        /* \"#utility.yul\":13476:13593   */\n      swap3\n      swap2\n      pop\n      pop\n      jump\t// out\n        /* \"#utility.yul\":13599:13768   */\n    tag_130:\n        /* \"#utility.yul\":13643:13649   */\n      0x00\n        /* \"#utility.yul\":13676:13727   */\n      tag_291\n        /* \"#utility.yul\":13724:13725   */\n      0x00\n        /* \"#utility.yul\":13720:13726   */\n      not\n        /* \"#utility.yul\":13712:13717   */\n      dup5\n        /* \"#utility.yul\":13709:13710   */\n      0x08\n        /* \"#utility.yul\":13705:13718   */\n      mul\n        /* \"#utility.yul\":13676:13727   */\n      tag_129\n      jump\t// in\n    tag_291:\n        /* \"#utility.yul\":13672:13728   */\n      not\n        /* \"#utility.yul\":13757:13761   */\n      dup1\n        /* \"#utility.yul\":13751:13755   */\n      dup4\n        /* \"#utility.yul\":13747:13762   */\n      and\n        /* \"#utility.yul\":13737:13762   */\n      swap2\n      pop\n        /* \"#utility.yul\":13650:13768   */\n      pop\n        /* \"#utility.yul\":13599:13768   */\n      swap3\n      swap2\n      pop\n      pop\n      jump\t// out\n        /* \"#utility.yul\":13773:14068   */\n    tag_131:\n        /* \"#utility.yul\":13849:13853   */\n      0x00\n        /* \"#utility.yul\":13995:14024   */\n      tag_293\n        /* \"#utility.yul\":14020:14023   */\n      dup4\n        /* \"#utility.yul\":14014:14018   */\n      dup4\n        /* \"#utility.yul\":13995:14024   */\n      tag_130\n      jump\t// in\n    tag_293:\n        /* \"#utility.yul\":13987:14024   */\n      swap2\n      pop\n        /* \"#utility.yul\":14057:14060   */\n      dup3\n        /* \"#utility.yul\":14054:14055   */\n      0x02\n        /* \"#utility.yul\":14050:14061   */\n      mul\n        /* \"#utility.yul\":14044:14048   */\n      dup3\n        /* \"#utility.yul\":14041:14062   */\n      or\n        /* \"#utility.yul\":14033:14062   */\n      swap1\n      pop\n        /* \"#utility.yul\":13773:14068   */\n      swap3\n      swap2\n      pop\n      pop\n      jump\t// out\n        /* \"#utility.yul\":14073:15468   */\n    tag_48:\n        /* \"#utility.yul\":14190:14227   */\n      tag_295\n        /* \"#utility.yul\":14223:14226   */\n      dup3\n        /* \"#utility.yul\":14190:14227   */\n      tag_105\n      jump\t// in\n    tag_295:\n        /* \"#utility.yul\":14292:14310   */\n      0xffffffffffffffff\n        /* \"#utility.yul\":14284:14290   */\n      dup2\n        /* \"#utility.yul\":14281:14311   */\n      gt\n        /* \"#utility.yul\":14278:14334   */\n      iszero\n      tag_296\n      jumpi\n        /* \"#utility.yul\":14314:14332   */\n      tag_297\n      tag_92\n      jump\t// in\n    tag_297:\n        /* \"#utility.yul\":14278:14334   */\n    tag_296:\n        /* \"#utility.yul\":14358:14396   */\n      tag_298\n        /* \"#utility.yul\":14390:14394   */\n      dup3\n        /* \"#utility.yul\":14384:14395   */\n      sload\n        /* \"#utility.yul\":14358:14396   */\n      tag_52\n      jump\t// in\n    tag_298:\n        /* \"#utility.yul\":14443:14510   */\n      tag_299\n        /* \"#utility.yul\":14503:14509   */\n      dup3\n        /* \"#utility.yul\":14495:14501   */\n      dup3\n        /* \"#utility.yul\":14489:14493   */\n      dup6\n        /* \"#utility.yul\":14443:14510   */\n      tag_128\n      jump\t// in\n    tag_299:\n        /* \"#utility.yul\":14537:14538   */\n      0x00\n        /* \"#utility.yul\":14561:14565   */\n      0x20\n        /* \"#utility.yul\":14548:14565   */\n      swap1\n      pop\n        /* \"#utility.yul\":14593:14595   */\n      0x1f\n        /* \"#utility.yul\":14585:14591   */\n      dup4\n        /* \"#utility.yul\":14582:14596   */\n      gt\n        /* \"#utility.yul\":14610:14611   */\n      0x01\n        /* \"#utility.yul\":14605:15223   */\n      dup2\n      eq\n      tag_301\n      jumpi\n        /* \"#utility.yul\":15267:15268   */\n      0x00\n        /* \"#utility.yul\":15284:15290   */\n      dup5\n        /* \"#utility.yul\":15281:15358   */\n      iszero\n      tag_302\n      jumpi\n        /* \"#utility.yul\":15333:15342   */\n      dup3\n        /* \"#utility.yul\":15328:15331   */\n      dup8\n        /* \"#utility.yul\":15324:15343   */\n      add\n        /* \"#utility.yul\":15318:15344   */\n      mload\n        /* \"#utility.yul\":15309:15344   */\n      swap1\n      pop\n        /* \"#utility.yul\":15281:15358   */\n    tag_302:\n        /* \"#utility.yul\":15384:15451   */\n      tag_303\n        /* \"#utility.yul\":15444:15450   */\n      dup6\n        /* \"#utility.yul\":15437:15442   */\n      dup3\n        /* \"#utility.yul\":15384:15451   */\n      tag_131\n      jump\t// in\n    tag_303:\n        /* \"#utility.yul\":15378:15382   */\n      dup7\n        /* \"#utility.yul\":15371:15452   */\n      sstore\n        /* \"#utility.yul\":15240:15462   */\n      pop\n        /* \"#utility.yul\":14575:15462   */\n      jump(tag_300)\n        /* \"#utility.yul\":14605:15223   */\n    tag_301:\n        /* \"#utility.yul\":14657:14661   */\n      0x1f\n        /* \"#utility.yul\":14653:14662   */\n      not\n        /* \"#utility.yul\":14645:14651   */\n      dup5\n        /* \"#utility.yul\":14641:14663   */\n      and\n        /* \"#utility.yul\":14691:14728   */\n      tag_304\n        /* \"#utility.yul\":14723:14727   */\n      dup7\n        /* \"#utility.yul\":14691:14728   */\n      tag_117\n      jump\t// in\n    tag_304:\n        /* \"#utility.yul\":14750:14751   */\n      0x00\n        /* \"#utility.yul\":14764:14972   */\n    tag_305:\n        /* \"#utility.yul\":14778:14785   */\n      dup3\n        /* \"#utility.yul\":14775:14776   */\n      dup2\n        /* \"#utility.yul\":14772:14786   */\n      lt\n        /* \"#utility.yul\":14764:14972   */\n      iszero\n      tag_307\n      jumpi\n        /* \"#utility.yul\":14857:14866   */\n      dup5\n        /* \"#utility.yul\":14852:14855   */\n      dup10\n        /* \"#utility.yul\":14848:14867   */\n      add\n        /* \"#utility.yul\":14842:14868   */\n      mload\n        /* \"#utility.yul\":14834:14840   */\n      dup3\n        /* \"#utility.yul\":14827:14869   */\n      sstore\n        /* \"#utility.yul\":14908:14909   */\n      0x01\n        /* \"#utility.yul\":14900:14906   */\n      dup3\n        /* \"#utility.yul\":14896:14910   */\n      add\n        /* \"#utility.yul\":14886:14910   */\n      swap2\n      pop\n        /* \"#utility.yul\":14955:14957   */\n      0x20\n        /* \"#utility.yul\":14944:14953   */\n      dup6\n        /* \"#utility.yul\":14940:14958   */\n      add\n        /* \"#utility.yul\":14927:14958   */\n      swap5\n      pop\n        /* \"#utility.yul\":14801:14805   */\n      0x20\n        /* \"#utility.yul\":14798:14799   */\n      dup2\n        /* \"#utility.yul\":14794:14806   */\n      add\n        /* \"#utility.yul\":14789:14806   */\n      swap1\n      pop\n        /* \"#utility.yul\":14764:14972   */\n      jump(tag_305)\n    tag_307:\n        /* \"#utility.yul\":15000:15006   */\n      dup7\n        /* \"#utility.yul\":14991:14998   */\n      dup4\n        /* \"#utility.yul\":14988:15007   */\n      lt\n        /* \"#utility.yul\":14985:15164   */\n      iszero\n      tag_308\n      jumpi\n        /* \"#utility.yul\":15058:15067   */\n      dup5\n        /* \"#utility.yul\":15053:15056   */\n      dup10\n        /* \"#utility.yul\":15049:15068   */\n      add\n        /* \"#utility.yul\":15043:15069   */\n      mload\n        /* \"#utility.yul\":15101:15149   */\n      tag_309\n        /* \"#utility.yul\":15143:15147   */\n      0x1f\n        /* \"#utility.yul\":15135:15141   */\n      dup10\n        /* \"#utility.yul\":15131:15148   */\n      and\n        /* \"#utility.yul\":15120:15129   */\n      dup3\n        /* \"#utility.yul\":15101:15149   */\n      tag_130\n      jump\t// in\n    tag_309:\n        /* \"#utility.yul\":15093:15099   */\n      dup4\n        /* \"#utility.yul\":15086:15150   */\n      sstore\n        /* \"#utility.yul\":15008:15164   */\n      pop\n        /* \"#utility.yul\":14985:15164   */\n    tag_308:\n        /* \"#utility.yul\":15210:15211   */\n      0x01\n        /* \"#utility.yul\":15206:15207   */\n      0x02\n        /* \"#utility.yul\":15198:15204   */\n      dup9\n        /* \"#utility.yul\":15194:15208   */\n      mul\n        /* \"#utility.yul\":15190:15212   */\n      add\n        /* \"#utility.yul\":15184:15188   */\n      dup9\n        /* \"#utility.yul\":15177:15213   */\n      sstore\n        /* \"#utility.yul\":14612:15223   */\n      pop\n      pop\n      pop\n        /* \"#utility.yul\":14575:15462   */\n    tag_300:\n      pop\n        /* \"#utility.yul\":14165:15468   */\n      pop\n      pop\n      pop\n        /* \"#utility.yul\":14073:15468   */\n      pop\n      pop\n      jump\t// out\n        /* \"#utility.yul\":15474:15654   */\n    tag_132:\n        /* \"#utility.yul\":15522:15599   */\n      0x4e487b7100000000000000000000000000000000000000000000000000000000\n        /* \"#utility.yul\":15519:15520   */\n      0x00\n        /* \"#utility.yul\":15512:15600   */\n      mstore\n        /* \"#utility.yul\":15619:15623   */\n      0x11\n        /* \"#utility.yul\":15616:15617   */\n      0x04\n        /* \"#utility.yul\":15609:15624   */\n      mstore\n        /* \"#utility.yul\":15643:15647   */\n      0x24\n        /* \"#utility.yul\":15640:15641   */\n      0x00\n        /* \"#utility.yul\":15633:15648   */\n      revert\n        /* \"#utility.yul\":15660:15893   */\n    tag_50:\n        /* \"#utility.yul\":15699:15702   */\n      0x00\n        /* \"#utility.yul\":15722:15746   */\n      tag_312\n        /* \"#utility.yul\":15740:15745   */\n      dup3\n        /* \"#utility.yul\":15722:15746   */\n      tag_99\n      jump\t// in\n    tag_312:\n        /* \"#utility.yul\":15713:15746   */\n      swap2\n      pop\n        /* \"#utility.yul\":15768:15834   */\n      0xffffffffffffffffffffffffffffffffffffffffffffffffffffffffffffffff\n        /* \"#utility.yul\":15761:15766   */\n      dup3\n        /* \"#utility.yul\":15758:15835   */\n      sub\n        /* \"#utility.yul\":15755:15858   */\n      tag_313\n      jumpi\n        /* \"#utility.yul\":15838:15856   */\n      tag_314\n      tag_132\n      jump\t// in\n    tag_314:\n        /* \"#utility.yul\":15755:15858   */\n    tag_313:\n        /* \"#utility.yul\":15885:15886   */\n      0x01\n        /* \"#utility.yul\":15878:15883   */\n      dup3\n        /* \"#utility.yul\":15874:15887   */\n      add\n        /* \"#utility.yul\":15867:15887   */\n      swap1\n      pop\n        /* \"#utility.yul\":15660:15893   */\n      swap2\n      swap1\n      pop\n      jump\t// out\n        /* \"#utility.yul\":15899:16069   */\n    tag_133:\n        /* \"#utility.yul\":16039:16061   */\n      0x4576656e7420646f6573206e6f74206578697374000000000000000000000000\n        /* \"#utility.yul\":16035:16036   */\n      0x00\n        /* \"#utility.yul\":16027:16033   */\n      dup3\n        /* \"#utility.yul\":16023:16037   */\n      add\n        /* \"#utility.yul\":16016:16062   */\n      mstore\n        /* \"#utility.yul\":15899:16069   */\n      pop\n      jump\t// out\n        /* \"#utility.yul\":16075:16441   */\n    tag_134:\n        /* \"#utility.yul\":16217:16220   */\n      0x00\n        /* \"#utility.yul\":16238:16305   */\n      tag_317\n        /* \"#utility.yul\":16302:16304   */\n      0x14\n        /* \"#utility.yul\":16297:16300   */\n      dup4\n        /* \"#utility.yul\":16238:16305   */\n      tag_106\n      jump\t// in\n    tag_317:\n        /* \"#utility.yul\":16231:16305   */\n      swap2\n      pop\n        /* \"#utility.yul\":16314:16407   */\n      tag_318\n        /* \"#utility.yul\":16403:16406   */\n      dup3\n        /* \"#utility.yul\":16314:16407   */\n      tag_133\n      jump\t// in\n    tag_318:\n        /* \"#utility.yul\":16432:16434   */\n      0x20\n        /* \"#utility.yul\":16427:16430   */\n      dup3\n        /* \"#utility.yul\":16423:16435   */\n      add\n        /* \"#utility.yul\":16416:16435   */\n      swap1\n      pop\n        /* \"#utility.yul\":16075:16441   */\n      swap2\n      swap1\n      pop\n      jump\t// out\n        /* \"#utility.yul\":16447:16866   */\n    tag_60:\n        /* \"#utility.yul\":16613:16617   */\n      0x00\n        /* \"#utility.yul\":16651:16653   */\n      0x20\n        /* \"#utility.yul\":16640:16649   */\n      dup3\n        /* \"#utility.yul\":16636:16654   */\n      add\n        /* \"#utility.yul\":16628:16654   */\n      swap1\n      pop\n        /* \"#utility.yul\":16700:16709   */\n      dup2\n        /* \"#utility.yul\":16694:16698   */\n      dup2\n        /* \"#utility.yul\":16690:16710   */\n      sub\n        /* \"#utility.yul\":16686:16687   */\n      0x00\n        /* \"#utility.yul\":16675:16684   */\n      dup4\n        /* \"#utility.yul\":16671:16688   */\n      add\n        /* \"#utility.yul\":16664:16711   */\n      mstore\n        /* \"#utility.yul\":16728:16859   */\n      tag_320\n        /* \"#utility.yul\":16854:16858   */\n      dup2\n        /* \"#utility.yul\":16728:16859   */\n      tag_134\n      jump\t// in\n    tag_320:\n        /* \"#utility.yul\":16720:16859   */\n      swap1\n      pop\n        /* \"#utility.yul\":16447:16866   */\n      swap2\n      swap1\n      pop\n      jump\t// out\n        /* \"#utility.yul\":16872:17047   */\n    tag_135:\n        /* \"#utility.yul\":17012:17039   */\n      0x6576656e742068617320616c7265616479206f63637572656400000000000000\n        /* \"#utility.yul\":17008:17009   */\n      0x00\n        /* \"#utility.yul\":17000:17006   */\n      dup3\n        /* \"#utility.yul\":16996:17010   */\n      add\n        /* \"#utility.yul\":16989:17040   */\n      mstore\n        /* \"#utility.yul\":16872:17047   */\n      pop\n      jump\t// out\n        /* \"#utility.yul\":17053:17419   */\n    tag_136:\n        /* \"#utility.yul\":17195:17198   */\n      0x00\n        /* \"#utility.yul\":17216:17283   */\n      tag_323\n        /* \"#utility.yul\":17280:17282   */\n      0x19\n        /* \"#utility.yul\":17275:17278   */\n      dup4\n        /* \"#utility.yul\":17216:17283   */\n      tag_106\n      jump\t// in\n    tag_323:\n        /* \"#utility.yul\":17209:17283   */\n      swap2\n      pop\n        /* \"#utility.yul\":17292:17385   */\n      tag_324\n        /* \"#utility.yul\":17381:17384   */\n      dup3\n        /* \"#utility.yul\":17292:17385   */\n      tag_135\n      jump\t// in\n    tag_324:\n        /* \"#utility.yul\":17410:17412   */\n      0x20\n        /* \"#utility.yul\":17405:17408   */\n      dup3\n        /* \"#utility.yul\":17401:17413   */\n      add\n        /* \"#utility.yul\":17394:17413   */\n      swap1\n      pop\n        /* \"#utility.yul\":17053:17419   */\n      swap2\n      swap1\n      pop\n      jump\t// out\n        /* \"#utility.yul\":17425:17844   */\n    tag_63:\n        /* \"#utility.yul\":17591:17595   */\n      0x00\n        /* \"#utility.yul\":17629:17631   */\n      0x20\n        /* \"#utility.yul\":17618:17627   */\n      dup3\n        /* \"#utility.yul\":17614:17632   */\n      add\n        /* \"#utility.yul\":17606:17632   */\n      swap1\n      pop\n        /* \"#utility.yul\":17678:17687   */\n      dup2\n        /* \"#utility.yul\":17672:17676   */\n      dup2\n        /* \"#utility.yul\":17668:17688   */\n      sub\n        /* \"#utility.yul\":17664:17665   */\n      0x00\n        /* \"#utility.yul\":17653:17662   */\n      dup4\n        /* \"#utility.yul\":17649:17666   */\n      add\n        /* \"#utility.yul\":17642:17689   */\n      mstore\n        /* \"#utility.yul\":17706:17837   */\n      tag_326\n        /* \"#utility.yul\":17832:17836   */\n      dup2\n        /* \"#utility.yul\":17706:17837   */\n      tag_136\n      jump\t// in\n    tag_326:\n        /* \"#utility.yul\":17698:17837   */\n      swap1\n      pop\n        /* \"#utility.yul\":17425:17844   */\n      swap2\n      swap1\n      pop\n      jump\t// out\n        /* \"#utility.yul\":17850:18260   */\n    tag_65:\n        /* \"#utility.yul\":17890:17897   */\n      0x00\n        /* \"#utility.yul\":17913:17933   */\n      tag_328\n        /* \"#utility.yul\":17931:17932   */\n      dup3\n        /* \"#utility.yul\":17913:17933   */\n      tag_99\n      jump\t// in\n    tag_328:\n        /* \"#utility.yul\":17908:17933   */\n      swap2\n      pop\n        /* \"#utility.yul\":17947:17967   */\n      tag_329\n        /* \"#utility.yul\":17965:17966   */\n      dup4\n        /* \"#utility.yul\":17947:17967   */\n      tag_99\n      jump\t// in\n    tag_329:\n        /* \"#utility.yul\":17942:17967   */\n      swap3\n      pop\n        /* \"#utility.yul\":18002:18003   */\n      dup3\n        /* \"#utility.yul\":17999:18000   */\n      dup3\n        /* \"#utility.yul\":17995:18004   */\n      mul\n        /* \"#utility.yul\":18024:18054   */\n      tag_330\n        /* \"#utility.yul\":18042:18053   */\n      dup2\n        /* \"#utility.yul\":18024:18054   */\n      tag_99\n      jump\t// in\n    tag_330:\n        /* \"#utility.yul\":18013:18054   */\n      swap2\n      pop\n        /* \"#utility.yul\":18203:18204   */\n      dup3\n        /* \"#utility.yul\":18194:18201   */\n      dup3\n        /* \"#utility.yul\":18190:18205   */\n      div\n        /* \"#utility.yul\":18187:18188   */\n      dup5\n        /* \"#utility.yul\":18184:18206   */\n      eq\n        /* \"#utility.yul\":18164:18165   */\n      dup4\n        /* \"#utility.yul\":18157:18166   */\n      iszero\n        /* \"#utility.yul\":18137:18220   */\n      or\n        /* \"#utility.yul\":18114:18253   */\n      tag_331\n      jumpi\n        /* \"#utility.yul\":18233:18251   */\n      tag_332\n      tag_132\n      jump\t// in\n    tag_332:\n        /* \"#utility.yul\":18114:18253   */\n    tag_331:\n        /* \"#utility.yul\":17898:18260   */\n      pop\n        /* \"#utility.yul\":17850:18260   */\n      swap3\n      swap2\n      pop\n      pop\n      jump\t// out\n        /* \"#utility.yul\":18266:18436   */\n    tag_137:\n        /* \"#utility.yul\":18406:18428   */\n      0x457468657265206973206e6f7420656e6f756768000000000000000000000000\n        /* \"#utility.yul\":18402:18403   */\n      0x00\n        /* \"#utility.yul\":18394:18400   */\n      dup3\n        /* \"#utility.yul\":18390:18404   */\n      add\n        /* \"#utility.yul\":18383:18429   */\n      mstore\n        /* \"#utility.yul\":18266:18436   */\n      pop\n      jump\t// out\n        /* \"#utility.yul\":18442:18808   */\n    tag_138:\n        /* \"#utility.yul\":18584:18587   */\n      0x00\n        /* \"#utility.yul\":18605:18672   */\n      tag_335\n        /* \"#utility.yul\":18669:18671   */\n      0x14\n        /* \"#utility.yul\":18664:18667   */\n      dup4\n        /* \"#utility.yul\":18605:18672   */\n      tag_106\n      jump\t// in\n    tag_335:\n        /* \"#utility.yul\":18598:18672   */\n      swap2\n      pop\n        /* \"#utility.yul\":18681:18774   */\n      tag_336\n        /* \"#utility.yul\":18770:18773   */\n      dup3\n        /* \"#utility.yul\":18681:18774   */\n      tag_137\n      jump\t// in\n    tag_336:\n        /* \"#utility.yul\":18799:18801   */\n      0x20\n        /* \"#utility.yul\":18794:18797   */\n      dup3\n        /* \"#utility.yul\":18790:18802   */\n      add\n        /* \"#utility.yul\":18783:18802   */\n      swap1\n      pop\n        /* \"#utility.yul\":18442:18808   */\n      swap2\n      swap1\n      pop\n      jump\t// out\n        /* \"#utility.yul\":18814:19233   */\n    tag_68:\n        /* \"#utility.yul\":18980:18984   */\n      0x00\n        /* \"#utility.yul\":19018:19020   */\n      0x20\n        /* \"#utility.yul\":19007:19016   */\n      dup3\n        /* \"#utility.yul\":19003:19021   */\n      add\n        /* \"#utility.yul\":18995:19021   */\n      swap1\n      pop\n        /* \"#utility.yul\":19067:19076   */\n      dup2\n        /* \"#utility.yul\":19061:19065   */\n      dup2\n        /* \"#utility.yul\":19057:19077   */\n      sub\n        /* \"#utility.yul\":19053:19054   */\n      0x00\n        /* \"#utility.yul\":19042:19051   */\n      dup4\n        /* \"#utility.yul\":19038:19055   */\n      add\n        /* \"#utility.yul\":19031:19078   */\n      mstore\n        /* \"#utility.yul\":19095:19226   */\n      tag_338\n        /* \"#utility.yul\":19221:19225   */\n      dup2\n        /* \"#utility.yul\":19095:19226   */\n      tag_138\n      jump\t// in\n    tag_338:\n        /* \"#utility.yul\":19087:19226   */\n      swap1\n      pop\n        /* \"#utility.yul\":18814:19233   */\n      swap2\n      swap1\n      pop\n      jump\t// out\n        /* \"#utility.yul\":19239:19407   */\n    tag_139:\n        /* \"#utility.yul\":19379:19399   */\n      0x6e6f7420656e6f756768207469636b6574730000000000000000000000000000\n        /* \"#utility.yul\":19375:19376   */\n      0x00\n        /* \"#utility.yul\":19367:19373   */\n      dup3\n        /* \"#utility.yul\":19363:19377   */\n      add\n        /* \"#utility.yul\":19356:19400   */\n      mstore\n        /* \"#utility.yul\":19239:19407   */\n      pop\n      jump\t// out\n        /* \"#utility.yul\":19413:19779   */\n    tag_140:\n        /* \"#utility.yul\":19555:19558   */\n      0x00\n        /* \"#utility.yul\":19576:19643   */\n      tag_341\n        /* \"#utility.yul\":19640:19642   */\n      0x12\n        /* \"#utility.yul\":19635:19638   */\n      dup4\n        /* \"#utility.yul\":19576:19643   */\n      tag_106\n      jump\t// in\n    tag_341:\n        /* \"#utility.yul\":19569:19643   */\n      swap2\n      pop\n        /* \"#utility.yul\":19652:19745   */\n      tag_342\n        /* \"#utility.yul\":19741:19744   */\n      dup3\n        /* \"#utility.yul\":19652:19745   */\n      tag_139\n      jump\t// in\n    tag_342:\n        /* \"#utility.yul\":19770:19772   */\n      0x20\n        /* \"#utility.yul\":19765:19768   */\n      dup3\n        /* \"#utility.yul\":19761:19773   */\n      add\n        /* \"#utility.yul\":19754:19773   */\n      swap1\n      pop\n        /* \"#utility.yul\":19413:19779   */\n      swap2\n      swap1\n      pop\n      jump\t// out\n        /* \"#utility.yul\":19785:20204   */\n    tag_71:\n        /* \"#utility.yul\":19951:19955   */\n      0x00\n        /* \"#utility.yul\":19989:19991   */\n      0x20\n        /* \"#utility.yul\":19978:19987   */\n      dup3\n        /* \"#utility.yul\":19974:19992   */\n      add\n        /* \"#utility.yul\":19966:19992   */\n      swap1\n      pop\n        /* \"#utility.yul\":20038:20047   */\n      dup2\n        /* \"#utility.yul\":20032:20036   */\n      dup2\n        /* \"#utility.yul\":20028:20048   */\n      sub\n        /* \"#utility.yul\":20024:20025   */\n      0x00\n        /* \"#utility.yul\":20013:20022   */\n      dup4\n        /* \"#utility.yul\":20009:20026   */\n      add\n        /* \"#utility.yul\":20002:20049   */\n      mstore\n        /* \"#utility.yul\":20066:20197   */\n      tag_344\n        /* \"#utility.yul\":20192:20196   */\n      dup2\n        /* \"#utility.yul\":20066:20197   */\n      tag_140\n      jump\t// in\n    tag_344:\n        /* \"#utility.yul\":20058:20197   */\n      swap1\n      pop\n        /* \"#utility.yul\":19785:20204   */\n      swap2\n      swap1\n      pop\n      jump\t// out\n        /* \"#utility.yul\":20210:20404   */\n    tag_73:\n        /* \"#utility.yul\":20250:20254   */\n      0x00\n        /* \"#utility.yul\":20270:20290   */\n      tag_346\n        /* \"#utility.yul\":20288:20289   */\n      dup3\n        /* \"#utility.yul\":20270:20290   */\n      tag_99\n      jump\t// in\n    tag_346:\n        /* \"#utility.yul\":20265:20290   */\n      swap2\n      pop\n        /* \"#utility.yul\":20304:20324   */\n      tag_347\n        /* \"#utility.yul\":20322:20323   */\n      dup4\n        /* \"#utility.yul\":20304:20324   */\n      tag_99\n      jump\t// in\n    tag_347:\n        /* \"#utility.yul\":20299:20324   */\n      swap3\n      pop\n        /* \"#utility.yul\":20348:20349   */\n      dup3\n        /* \"#utility.yul\":20345:20346   */\n      dup3\n        /* \"#utility.yul\":20341:20350   */\n      sub\n        /* \"#utility.yul\":20333:20350   */\n      swap1\n      pop\n        /* \"#utility.yul\":20372:20373   */\n      dup2\n        /* \"#utility.yul\":20366:20370   */\n      dup2\n        /* \"#utility.yul\":20363:20374   */\n      gt\n        /* \"#utility.yul\":20360:20397   */\n      iszero\n      tag_348\n      jumpi\n        /* \"#utility.yul\":20377:20395   */\n      tag_349\n      tag_132\n      jump\t// in\n    tag_349:\n        /* \"#utility.yul\":20360:20397   */\n    tag_348:\n        /* \"#utility.yul\":20210:20404   */\n      swap3\n      swap2\n      pop\n      pop\n      jump\t// out\n        /* \"#utility.yul\":20410:20601   */\n    tag_75:\n        /* \"#utility.yul\":20450:20453   */\n      0x00\n        /* \"#utility.yul\":20469:20489   */\n      tag_351\n        /* \"#utility.yul\":20487:20488   */\n      dup3\n        /* \"#utility.yul\":20469:20489   */\n      tag_99\n      jump\t// in\n    tag_351:\n        /* \"#utility.yul\":20464:20489   */\n      swap2\n      pop\n        /* \"#utility.yul\":20503:20523   */\n      tag_352\n        /* \"#utility.yul\":20521:20522   */\n      dup4\n        /* \"#utility.yul\":20503:20523   */\n      tag_99\n      jump\t// in\n    tag_352:\n        /* \"#utility.yul\":20498:20523   */\n      swap3\n      pop\n        /* \"#utility.yul\":20546:20547   */\n      dup3\n        /* \"#utility.yul\":20543:20544   */\n      dup3\n        /* \"#utility.yul\":20539:20548   */\n      add\n        /* \"#utility.yul\":20532:20548   */\n      swap1\n      pop\n        /* \"#utility.yul\":20567:20570   */\n      dup1\n        /* \"#utility.yul\":20564:20565   */\n      dup3\n        /* \"#utility.yul\":20561:20571   */\n      gt\n        /* \"#utility.yul\":20558:20594   */\n      iszero\n      tag_353\n      jumpi\n        /* \"#utility.yul\":20574:20592   */\n      tag_354\n      tag_132\n      jump\t// in\n    tag_354:\n        /* \"#utility.yul\":20558:20594   */\n    tag_353:\n        /* \"#utility.yul\":20410:20601   */\n      swap3\n      swap2\n      pop\n      pop\n      jump\t// out\n        /* \"#utility.yul\":20607:20789   */\n    tag_141:\n        /* \"#utility.yul\":20747:20781   */\n      0x796f7520646f6e74206e6f74206861766520656e6f756768207469636b657473\n        /* \"#utility.yul\":20743:20744   */\n      0x00\n        /* \"#utility.yul\":20735:20741   */\n      dup3\n        /* \"#utility.yul\":20731:20745   */\n      add\n        /* \"#utility.yul\":20724:20782   */\n      mstore\n        /* \"#utility.yul\":20607:20789   */\n      pop\n      jump\t// out\n        /* \"#utility.yul\":20795:21161   */\n    tag_142:\n        /* \"#utility.yul\":20937:20940   */\n      0x00\n        /* \"#utility.yul\":20958:21025   */\n      tag_357\n        /* \"#utility.yul\":21022:21024   */\n      0x20\n        /* \"#utility.yul\":21017:21020   */\n      dup4\n        /* \"#utility.yul\":20958:21025   */\n      tag_106\n      jump\t// in\n    tag_357:\n        /* \"#utility.yul\":20951:21025   */\n      swap2\n      pop\n        /* \"#utility.yul\":21034:21127   */\n      tag_358\n        /* \"#utility.yul\":21123:21126   */\n      dup3\n        /* \"#utility.yul\":21034:21127   */\n      tag_141\n      jump\t// in\n    tag_358:\n        /* \"#utility.yul\":21152:21154   */\n      0x20\n        /* \"#utility.yul\":21147:21150   */\n      dup3\n        /* \"#utility.yul\":21143:21155   */\n      add\n        /* \"#utility.yul\":21136:21155   */\n      swap1\n      pop\n        /* \"#utility.yul\":20795:21161   */\n      swap2\n      swap1\n      pop\n      jump\t// out\n        /* \"#utility.yul\":21167:21586   */\n    tag_83:\n        /* \"#utility.yul\":21333:21337   */\n      0x00\n        /* \"#utility.yul\":21371:21373   */\n      0x20\n        /* \"#utility.yul\":21360:21369   */\n      dup3\n        /* \"#utility.yul\":21356:21374   */\n      add\n        /* \"#utility.yul\":21348:21374   */\n      swap1\n      pop\n        /* \"#utility.yul\":21420:21429   */\n      dup2\n        /* \"#utility.yul\":21414:21418   */\n      dup2\n        /* \"#utility.yul\":21410:21430   */\n      sub\n        /* \"#utility.yul\":21406:21407   */\n      0x00\n        /* \"#utility.yul\":21395:21404   */\n      dup4\n        /* \"#utility.yul\":21391:21408   */\n      add\n        /* \"#utility.yul\":21384:21431   */\n      mstore\n        /* \"#utility.yul\":21448:21579   */\n      tag_360\n        /* \"#utility.yul\":21574:21578   */\n      dup2\n        /* \"#utility.yul\":21448:21579   */\n      tag_142\n      jump\t// in\n    tag_360:\n        /* \"#utility.yul\":21440:21579   */\n      swap1\n      pop\n        /* \"#utility.yul\":21167:21586   */\n      swap2\n      swap1\n      pop\n      jump\t// out\n\n    auxdata: 0xa2646970667358221220a396d4d16c2f5164db64e68ff2bb058de107a83b19253fc2d8d2b7e6579a624d64736f6c63430008120033\n}\n",
				"bytecode": {
					"linkReferences": {},
					"object": "608060405234801561001057600080fd5b50611402806100206000396000f3fe6080604052600436106100555760003560e01c80630374ab0b1461005a5780630b79143014610083578063298ec208146100c557806361b8ce8c146100e1578063dae7a13c1461010c578063f086a09b14610149575b600080fd5b34801561006657600080fd5b50610081600480360381019061007c919061098c565b610172565b005b34801561008f57600080fd5b506100aa60048036038101906100a59190610a0f565b6102f4565b6040516100bc96959493929190610b0b565b60405180910390f35b6100df60048036038101906100da9190610b73565b6103d8565b005b3480156100ed57600080fd5b506100f66105bc565b6040516101039190610bb3565b60405180910390f35b34801561011857600080fd5b50610133600480360381019061012e9190610bfa565b6105c2565b6040516101409190610bb3565b60405180910390f35b34801561015557600080fd5b50610170600480360381019061016b9190610c3a565b6105e7565b005b4283116101b4576040517f08c379a00000000000000000000000000000000000000000000000000000000081526004016101ab90610cff565b60405180910390fd5b600081116101f7576040517f08c379a00000000000000000000000000000000000000000000000000000000081526004016101ee90610d91565b60405180910390fd5b6040518060c001604052803373ffffffffffffffffffffffffffffffffffffffff16815260200185815260200184815260200183815260200182815260200182815250600080600254815260200190815260200160002060008201518160000160006101000a81548173ffffffffffffffffffffffffffffffffffffffff021916908373ffffffffffffffffffffffffffffffffffffffff16021790555060208201518160010190816102aa9190610fbd565b5060408201518160020155606082015181600301556080820151816004015560a08201518160050155905050600260008154809291906102e9906110be565b919050555050505050565b60006020528060005260406000206000915090508060000160009054906101000a900473ffffffffffffffffffffffffffffffffffffffff169080600101805461033d90610de0565b80601f016020809104026020016040519081016040528092919081815260200182805461036990610de0565b80156103b65780601f1061038b576101008083540402835291602001916103b6565b820191906000526020600020905b81548152906001019060200180831161039957829003601f168201915b5050505050908060020154908060030154908060040154908060050154905086565b60008060008481526020019081526020016000206002015403610430576040517f08c379a000000000000000000000000000000000000000000000000000000000815260040161042790611152565b60405180910390fd5b426000808481526020019081526020016000206002015411610487576040517f08c379a000000000000000000000000000000000000000000000000000000000815260040161047e906111be565b60405180910390fd5b600080600084815260200190815260200160002090508181600301546104ad91906111de565b34146104ee576040517f08c379a00000000000000000000000000000000000000000000000000000000081526004016104e59061126c565b60405180910390fd5b8181600501541015610535576040517f08c379a000000000000000000000000000000000000000000000000000000000815260040161052c906112d8565b60405180910390fd5b8181600501600082825461054991906112f8565b9250508190555081600160003373ffffffffffffffffffffffffffffffffffffffff1673ffffffffffffffffffffffffffffffffffffffff168152602001908152602001600020600085815260200190815260200160002060008282546105b0919061132c565b92505081905550505050565b60025481565b6001602052816000526040600020602052806000526040600020600091509150505481565b6000806000858152602001908152602001600020600201540361063f576040517f08c379a000000000000000000000000000000000000000000000000000000000815260040161063690611152565b60405180910390fd5b426000808581526020019081526020016000206002015411610696576040517f08c379a000000000000000000000000000000000000000000000000000000000815260040161068d906111be565b60405180910390fd5b81600160003373ffffffffffffffffffffffffffffffffffffffff1673ffffffffffffffffffffffffffffffffffffffff1681526020019081526020016000206000858152602001908152602001600020541015610729576040517f08c379a0000000000000000000000000000000000000000000000000000000008152600401610720906113ac565b60405180910390fd5b81600160003373ffffffffffffffffffffffffffffffffffffffff1673ffffffffffffffffffffffffffffffffffffffff1681526020019081526020016000206000858152602001908152602001600020600082825461078991906112f8565b9250508190555081600160008373ffffffffffffffffffffffffffffffffffffffff1673ffffffffffffffffffffffffffffffffffffffff168152602001908152602001600020600085815260200190815260200160002060008282546107f0919061132c565b92505081905550505050565b6000604051905090565b600080fd5b600080fd5b600080fd5b600080fd5b6000601f19601f8301169050919050565b7f4e487b7100000000000000000000000000000000000000000000000000000000600052604160045260246000fd5b6108638261081a565b810181811067ffffffffffffffff821117156108825761088161082b565b5b80604052505050565b60006108956107fc565b90506108a1828261085a565b919050565b600067ffffffffffffffff8211156108c1576108c061082b565b5b6108ca8261081a565b9050602081019050919050565b82818337600083830152505050565b60006108f96108f4846108a6565b61088b565b90508281526020810184848401111561091557610914610815565b5b6109208482856108d7565b509392505050565b600082601f83011261093d5761093c610810565b5b813561094d8482602086016108e6565b91505092915050565b6000819050919050565b61096981610956565b811461097457600080fd5b50565b60008135905061098681610960565b92915050565b600080600080608085870312156109a6576109a5610806565b5b600085013567ffffffffffffffff8111156109c4576109c361080b565b5b6109d087828801610928565b94505060206109e187828801610977565b93505060406109f287828801610977565b9250506060610a0387828801610977565b91505092959194509250565b600060208284031215610a2557610a24610806565b5b6000610a3384828501610977565b91505092915050565b600073ffffffffffffffffffffffffffffffffffffffff82169050919050565b6000610a6782610a3c565b9050919050565b610a7781610a5c565b82525050565b600081519050919050565b600082825260208201905092915050565b60005b83811015610ab7578082015181840152602081019050610a9c565b60008484015250505050565b6000610ace82610a7d565b610ad88185610a88565b9350610ae8818560208601610a99565b610af18161081a565b840191505092915050565b610b0581610956565b82525050565b600060c082019050610b206000830189610a6e565b8181036020830152610b328188610ac3565b9050610b416040830187610afc565b610b4e6060830186610afc565b610b5b6080830185610afc565b610b6860a0830184610afc565b979650505050505050565b60008060408385031215610b8a57610b89610806565b5b6000610b9885828601610977565b9250506020610ba985828601610977565b9150509250929050565b6000602082019050610bc86000830184610afc565b92915050565b610bd781610a5c565b8114610be257600080fd5b50565b600081359050610bf481610bce565b92915050565b60008060408385031215610c1157610c10610806565b5b6000610c1f85828601610be5565b9250506020610c3085828601610977565b9150509250929050565b600080600060608486031215610c5357610c52610806565b5b6000610c6186828701610977565b9350506020610c7286828701610977565b9250506040610c8386828701610be5565b9150509250925092565b7f796f752063616e206f7267616e697a65206576656e7420666f7220667574757260008201527f6500000000000000000000000000000000000000000000000000000000000000602082015250565b6000610ce9602183610a88565b9150610cf482610c8d565b604082019050919050565b60006020820190508181036000830152610d1881610cdc565b9050919050565b7f796f752063616e206f7267616e697a65206576656e74206f6e6c79206966207960008201527f6f752063616e206d6f7265207468616e2030207469636b657473000000000000602082015250565b6000610d7b603a83610a88565b9150610d8682610d1f565b604082019050919050565b60006020820190508181036000830152610daa81610d6e565b9050919050565b7f4e487b7100000000000000000000000000000000000000000000000000000000600052602260045260246000fd5b60006002820490506001821680610df857607f821691505b602082108103610e0b57610e0a610db1565b5b50919050565b60008190508160005260206000209050919050565b60006020601f8301049050919050565b600082821b905092915050565b600060088302610e737fffffffffffffffffffffffffffffffffffffffffffffffffffffffffffffffff82610e36565b610e7d8683610e36565b95508019841693508086168417925050509392505050565b6000819050919050565b6000610eba610eb5610eb084610956565b610e95565b610956565b9050919050565b6000819050919050565b610ed483610e9f565b610ee8610ee082610ec1565b848454610e43565b825550505050565b600090565b610efd610ef0565b610f08818484610ecb565b505050565b5b81811015610f2c57610f21600082610ef5565b600181019050610f0e565b5050565b601f821115610f7157610f4281610e11565b610f4b84610e26565b81016020851015610f5a578190505b610f6e610f6685610e26565b830182610f0d565b50505b505050565b600082821c905092915050565b6000610f9460001984600802610f76565b1980831691505092915050565b6000610fad8383610f83565b9150826002028217905092915050565b610fc682610a7d565b67ffffffffffffffff811115610fdf57610fde61082b565b5b610fe98254610de0565b610ff4828285610f30565b600060209050601f8311600181146110275760008415611015578287015190505b61101f8582610fa1565b865550611087565b601f19841661103586610e11565b60005b8281101561105d57848901518255600182019150602085019450602081019050611038565b8683101561107a5784890151611076601f891682610f83565b8355505b6001600288020188555050505b505050505050565b7f4e487b7100000000000000000000000000000000000000000000000000000000600052601160045260246000fd5b60006110c982610956565b91507fffffffffffffffffffffffffffffffffffffffffffffffffffffffffffffffff82036110fb576110fa61108f565b5b600182019050919050565b7f4576656e7420646f6573206e6f74206578697374000000000000000000000000600082015250565b600061113c601483610a88565b915061114782611106565b602082019050919050565b6000602082019050818103600083015261116b8161112f565b9050919050565b7f6576656e742068617320616c7265616479206f63637572656400000000000000600082015250565b60006111a8601983610a88565b91506111b382611172565b602082019050919050565b600060208201905081810360008301526111d78161119b565b9050919050565b60006111e982610956565b91506111f483610956565b925082820261120281610956565b915082820484148315176112195761121861108f565b5b5092915050565b7f457468657265206973206e6f7420656e6f756768000000000000000000000000600082015250565b6000611256601483610a88565b915061126182611220565b602082019050919050565b6000602082019050818103600083015261128581611249565b9050919050565b7f6e6f7420656e6f756768207469636b6574730000000000000000000000000000600082015250565b60006112c2601283610a88565b91506112cd8261128c565b602082019050919050565b600060208201905081810360008301526112f1816112b5565b9050919050565b600061130382610956565b915061130e83610956565b92508282039050818111156113265761132561108f565b5b92915050565b600061133782610956565b915061134283610956565b925082820190508082111561135a5761135961108f565b5b92915050565b7f796f7520646f6e74206e6f74206861766520656e6f756768207469636b657473600082015250565b6000611396602083610a88565b91506113a182611360565b602082019050919050565b600060208201905081810360008301526113c581611389565b905091905056fea2646970667358221220a396d4d16c2f5164db64e68ff2bb058de107a83b19253fc2d8d2b7e6579a624d64736f6c63430008120033",
					"opcodes": "PUSH1 0x80 PUSH1 0x40 MSTORE CALLVALUE DUP1 ISZERO PUSH2 0x10 JUMPI PUSH1 0x0 DUP1 REVERT JUMPDEST POP PUSH2 0x1402 DUP1 PUSH2 0x20 PUSH1 0x0 CODECOPY PUSH1 0x0 RETURN INVALID PUSH1 0x80 PUSH1 0x40 MSTORE PUSH1 0x4 CALLDATASIZE LT PUSH2 0x55 JUMPI PUSH1 0x0 CALLDATALOAD PUSH1 0xE0 SHR DUP1 PUSH4 0x374AB0B EQ PUSH2 0x5A JUMPI DUP1 PUSH4 0xB791430 EQ PUSH2 0x83 JUMPI DUP1 PUSH4 0x298EC208 EQ PUSH2 0xC5 JUMPI DUP1 PUSH4 0x61B8CE8C EQ PUSH2 0xE1 JUMPI DUP1 PUSH4 0xDAE7A13C EQ PUSH2 0x10C JUMPI DUP1 PUSH4 0xF086A09B EQ PUSH2 0x149 JUMPI JUMPDEST PUSH1 0x0 DUP1 REVERT JUMPDEST CALLVALUE DUP1 ISZERO PUSH2 0x66 JUMPI PUSH1 0x0 DUP1 REVERT JUMPDEST POP PUSH2 0x81 PUSH1 0x4 DUP1 CALLDATASIZE SUB DUP2 ADD SWAP1 PUSH2 0x7C SWAP2 SWAP1 PUSH2 0x98C JUMP JUMPDEST PUSH2 0x172 JUMP JUMPDEST STOP JUMPDEST CALLVALUE DUP1 ISZERO PUSH2 0x8F JUMPI PUSH1 0x0 DUP1 REVERT JUMPDEST POP PUSH2 0xAA PUSH1 0x4 DUP1 CALLDATASIZE SUB DUP2 ADD SWAP1 PUSH2 0xA5 SWAP2 SWAP1 PUSH2 0xA0F JUMP JUMPDEST PUSH2 0x2F4 JUMP JUMPDEST PUSH1 0x40 MLOAD PUSH2 0xBC SWAP7 SWAP6 SWAP5 SWAP4 SWAP3 SWAP2 SWAP1 PUSH2 0xB0B JUMP JUMPDEST PUSH1 0x40 MLOAD DUP1 SWAP2 SUB SWAP1 RETURN JUMPDEST PUSH2 0xDF PUSH1 0x4 DUP1 CALLDATASIZE SUB DUP2 ADD SWAP1 PUSH2 0xDA SWAP2 SWAP1 PUSH2 0xB73 JUMP JUMPDEST PUSH2 0x3D8 JUMP JUMPDEST STOP JUMPDEST CALLVALUE DUP1 ISZERO PUSH2 0xED JUMPI PUSH1 0x0 DUP1 REVERT JUMPDEST POP PUSH2 0xF6 PUSH2 0x5BC JUMP JUMPDEST PUSH1 0x40 MLOAD PUSH2 0x103 SWAP2 SWAP1 PUSH2 0xBB3 JUMP JUMPDEST PUSH1 0x40 MLOAD DUP1 SWAP2 SUB SWAP1 RETURN JUMPDEST CALLVALUE DUP1 ISZERO PUSH2 0x118 JUMPI PUSH1 0x0 DUP1 REVERT JUMPDEST POP PUSH2 0x133 PUSH1 0x4 DUP1 CALLDATASIZE SUB DUP2 ADD SWAP1 PUSH2 0x12E SWAP2 SWAP1 PUSH2 0xBFA JUMP JUMPDEST PUSH2 0x5C2 JUMP JUMPDEST PUSH1 0x40 MLOAD PUSH2 0x140 SWAP2 SWAP1 PUSH2 0xBB3 JUMP JUMPDEST PUSH1 0x40 MLOAD DUP1 SWAP2 SUB SWAP1 RETURN JUMPDEST CALLVALUE DUP1 ISZERO PUSH2 0x155 JUMPI PUSH1 0x0 DUP1 REVERT JUMPDEST POP PUSH2 0x170 PUSH1 0x4 DUP1 CALLDATASIZE SUB DUP2 ADD SWAP1 PUSH2 0x16B SWAP2 SWAP1 PUSH2 0xC3A JUMP JUMPDEST PUSH2 0x5E7 JUMP JUMPDEST STOP JUMPDEST TIMESTAMP DUP4 GT PUSH2 0x1B4 JUMPI PUSH1 0x40 MLOAD PUSH32 0x8C379A000000000000000000000000000000000000000000000000000000000 DUP2 MSTORE PUSH1 0x4 ADD PUSH2 0x1AB SWAP1 PUSH2 0xCFF JUMP JUMPDEST PUSH1 0x40 MLOAD DUP1 SWAP2 SUB SWAP1 REVERT JUMPDEST PUSH1 0x0 DUP2 GT PUSH2 0x1F7 JUMPI PUSH1 0x40 MLOAD PUSH32 0x8C379A000000000000000000000000000000000000000000000000000000000 DUP2 MSTORE PUSH1 0x4 ADD PUSH2 0x1EE SWAP1 PUSH2 0xD91 JUMP JUMPDEST PUSH1 0x40 MLOAD DUP1 SWAP2 SUB SWAP1 REVERT JUMPDEST PUSH1 0x40 MLOAD DUP1 PUSH1 0xC0 ADD PUSH1 0x40 MSTORE DUP1 CALLER PUSH20 0xFFFFFFFFFFFFFFFFFFFFFFFFFFFFFFFFFFFFFFFF AND DUP2 MSTORE PUSH1 0x20 ADD DUP6 DUP2 MSTORE PUSH1 0x20 ADD DUP5 DUP2 MSTORE PUSH1 0x20 ADD DUP4 DUP2 MSTORE PUSH1 0x20 ADD DUP3 DUP2 MSTORE PUSH1 0x20 ADD DUP3 DUP2 MSTORE POP PUSH1 0x0 DUP1 PUSH1 0x2 SLOAD DUP2 MSTORE PUSH1 0x20 ADD SWAP1 DUP2 MSTORE PUSH1 0x20 ADD PUSH1 0x0 KECCAK256 PUSH1 0x0 DUP3 ADD MLOAD DUP2 PUSH1 0x0 ADD PUSH1 0x0 PUSH2 0x100 EXP DUP2 SLOAD DUP2 PUSH20 0xFFFFFFFFFFFFFFFFFFFFFFFFFFFFFFFFFFFFFFFF MUL NOT AND SWAP1 DUP4 PUSH20 0xFFFFFFFFFFFFFFFFFFFFFFFFFFFFFFFFFFFFFFFF AND MUL OR SWAP1 SSTORE POP PUSH1 0x20 DUP3 ADD MLOAD DUP2 PUSH1 0x1 ADD SWAP1 DUP2 PUSH2 0x2AA SWAP2 SWAP1 PUSH2 0xFBD JUMP JUMPDEST POP PUSH1 0x40 DUP3 ADD MLOAD DUP2 PUSH1 0x2 ADD SSTORE PUSH1 0x60 DUP3 ADD MLOAD DUP2 PUSH1 0x3 ADD SSTORE PUSH1 0x80 DUP3 ADD MLOAD DUP2 PUSH1 0x4 ADD SSTORE PUSH1 0xA0 DUP3 ADD MLOAD DUP2 PUSH1 0x5 ADD SSTORE SWAP1 POP POP PUSH1 0x2 PUSH1 0x0 DUP2 SLOAD DUP1 SWAP3 SWAP2 SWAP1 PUSH2 0x2E9 SWAP1 PUSH2 0x10BE JUMP JUMPDEST SWAP2 SWAP1 POP SSTORE POP POP POP POP POP JUMP JUMPDEST PUSH1 0x0 PUSH1 0x20 MSTORE DUP1 PUSH1 0x0 MSTORE PUSH1 0x40 PUSH1 0x0 KECCAK256 PUSH1 0x0 SWAP2 POP SWAP1 POP DUP1 PUSH1 0x0 ADD PUSH1 0x0 SWAP1 SLOAD SWAP1 PUSH2 0x100 EXP SWAP1 DIV PUSH20 0xFFFFFFFFFFFFFFFFFFFFFFFFFFFFFFFFFFFFFFFF AND SWAP1 DUP1 PUSH1 0x1 ADD DUP1 SLOAD PUSH2 0x33D SWAP1 PUSH2 0xDE0 JUMP JUMPDEST DUP1 PUSH1 0x1F ADD PUSH1 0x20 DUP1 SWAP2 DIV MUL PUSH1 0x20 ADD PUSH1 0x40 MLOAD SWAP1 DUP2 ADD PUSH1 0x40 MSTORE DUP1 SWAP3 SWAP2 SWAP1 DUP2 DUP2 MSTORE PUSH1 0x20 ADD DUP3 DUP1 SLOAD PUSH2 0x369 SWAP1 PUSH2 0xDE0 JUMP JUMPDEST DUP1 ISZERO PUSH2 0x3B6 JUMPI DUP1 PUSH1 0x1F LT PUSH2 0x38B JUMPI PUSH2 0x100 DUP1 DUP4 SLOAD DIV MUL DUP4 MSTORE SWAP2 PUSH1 0x20 ADD SWAP2 PUSH2 0x3B6 JUMP JUMPDEST DUP3 ADD SWAP2 SWAP1 PUSH1 0x0 MSTORE PUSH1 0x20 PUSH1 0x0 KECCAK256 SWAP1 JUMPDEST DUP2 SLOAD DUP2 MSTORE SWAP1 PUSH1 0x1 ADD SWAP1 PUSH1 0x20 ADD DUP1 DUP4 GT PUSH2 0x399 JUMPI DUP3 SWAP1 SUB PUSH1 0x1F AND DUP3 ADD SWAP2 JUMPDEST POP POP POP POP POP SWAP1 DUP1 PUSH1 0x2 ADD SLOAD SWAP1 DUP1 PUSH1 0x3 ADD SLOAD SWAP1 DUP1 PUSH1 0x4 ADD SLOAD SWAP1 DUP1 PUSH1 0x5 ADD SLOAD SWAP1 POP DUP7 JUMP JUMPDEST PUSH1 0x0 DUP1 PUSH1 0x0 DUP5 DUP2 MSTORE PUSH1 0x20 ADD SWAP1 DUP2 MSTORE PUSH1 0x20 ADD PUSH1 0x0 KECCAK256 PUSH1 0x2 ADD SLOAD SUB PUSH2 0x430 JUMPI PUSH1 0x40 MLOAD PUSH32 0x8C379A000000000000000000000000000000000000000000000000000000000 DUP2 MSTORE PUSH1 0x4 ADD PUSH2 0x427 SWAP1 PUSH2 0x1152 JUMP JUMPDEST PUSH1 0x40 MLOAD DUP1 SWAP2 SUB SWAP1 REVERT JUMPDEST TIMESTAMP PUSH1 0x0 DUP1 DUP5 DUP2 MSTORE PUSH1 0x20 ADD SWAP1 DUP2 MSTORE PUSH1 0x20 ADD PUSH1 0x0 KECCAK256 PUSH1 0x2 ADD SLOAD GT PUSH2 0x487 JUMPI PUSH1 0x40 MLOAD PUSH32 0x8C379A000000000000000000000000000000000000000000000000000000000 DUP2 MSTORE PUSH1 0x4 ADD PUSH2 0x47E SWAP1 PUSH2 0x11BE JUMP JUMPDEST PUSH1 0x40 MLOAD DUP1 SWAP2 SUB SWAP1 REVERT JUMPDEST PUSH1 0x0 DUP1 PUSH1 0x0 DUP5 DUP2 MSTORE PUSH1 0x20 ADD SWAP1 DUP2 MSTORE PUSH1 0x20 ADD PUSH1 0x0 KECCAK256 SWAP1 POP DUP2 DUP2 PUSH1 0x3 ADD SLOAD PUSH2 0x4AD SWAP2 SWAP1 PUSH2 0x11DE JUMP JUMPDEST CALLVALUE EQ PUSH2 0x4EE JUMPI PUSH1 0x40 MLOAD PUSH32 0x8C379A000000000000000000000000000000000000000000000000000000000 DUP2 MSTORE PUSH1 0x4 ADD PUSH2 0x4E5 SWAP1 PUSH2 0x126C JUMP JUMPDEST PUSH1 0x40 MLOAD DUP1 SWAP2 SUB SWAP1 REVERT JUMPDEST DUP2 DUP2 PUSH1 0x5 ADD SLOAD LT ISZERO PUSH2 0x535 JUMPI PUSH1 0x40 MLOAD PUSH32 0x8C379A000000000000000000000000000000000000000000000000000000000 DUP2 MSTORE PUSH1 0x4 ADD PUSH2 0x52C SWAP1 PUSH2 0x12D8 JUMP JUMPDEST PUSH1 0x40 MLOAD DUP1 SWAP2 SUB SWAP1 REVERT JUMPDEST DUP2 DUP2 PUSH1 0x5 ADD PUSH1 0x0 DUP3 DUP3 SLOAD PUSH2 0x549 SWAP2 SWAP1 PUSH2 0x12F8 JUMP JUMPDEST SWAP3 POP POP DUP2 SWAP1 SSTORE POP DUP2 PUSH1 0x1 PUSH1 0x0 CALLER PUSH20 0xFFFFFFFFFFFFFFFFFFFFFFFFFFFFFFFFFFFFFFFF AND PUSH20 0xFFFFFFFFFFFFFFFFFFFFFFFFFFFFFFFFFFFFFFFF AND DUP2 MSTORE PUSH1 0x20 ADD SWAP1 DUP2 MSTORE PUSH1 0x20 ADD PUSH1 0x0 KECCAK256 PUSH1 0x0 DUP6 DUP2 MSTORE PUSH1 0x20 ADD SWAP1 DUP2 MSTORE PUSH1 0x20 ADD PUSH1 0x0 KECCAK256 PUSH1 0x0 DUP3 DUP3 SLOAD PUSH2 0x5B0 SWAP2 SWAP1 PUSH2 0x132C JUMP JUMPDEST SWAP3 POP POP DUP2 SWAP1 SSTORE POP POP POP POP JUMP JUMPDEST PUSH1 0x2 SLOAD DUP2 JUMP JUMPDEST PUSH1 0x1 PUSH1 0x20 MSTORE DUP2 PUSH1 0x0 MSTORE PUSH1 0x40 PUSH1 0x0 KECCAK256 PUSH1 0x20 MSTORE DUP1 PUSH1 0x0 MSTORE PUSH1 0x40 PUSH1 0x0 KECCAK256 PUSH1 0x0 SWAP2 POP SWAP2 POP POP SLOAD DUP2 JUMP JUMPDEST PUSH1 0x0 DUP1 PUSH1 0x0 DUP6 DUP2 MSTORE PUSH1 0x20 ADD SWAP1 DUP2 MSTORE PUSH1 0x20 ADD PUSH1 0x0 KECCAK256 PUSH1 0x2 ADD SLOAD SUB PUSH2 0x63F JUMPI PUSH1 0x40 MLOAD PUSH32 0x8C379A000000000000000000000000000000000000000000000000000000000 DUP2 MSTORE PUSH1 0x4 ADD PUSH2 0x636 SWAP1 PUSH2 0x1152 JUMP JUMPDEST PUSH1 0x40 MLOAD DUP1 SWAP2 SUB SWAP1 REVERT JUMPDEST TIMESTAMP PUSH1 0x0 DUP1 DUP6 DUP2 MSTORE PUSH1 0x20 ADD SWAP1 DUP2 MSTORE PUSH1 0x20 ADD PUSH1 0x0 KECCAK256 PUSH1 0x2 ADD SLOAD GT PUSH2 0x696 JUMPI PUSH1 0x40 MLOAD PUSH32 0x8C379A000000000000000000000000000000000000000000000000000000000 DUP2 MSTORE PUSH1 0x4 ADD PUSH2 0x68D SWAP1 PUSH2 0x11BE JUMP JUMPDEST PUSH1 0x40 MLOAD DUP1 SWAP2 SUB SWAP1 REVERT JUMPDEST DUP2 PUSH1 0x1 PUSH1 0x0 CALLER PUSH20 0xFFFFFFFFFFFFFFFFFFFFFFFFFFFFFFFFFFFFFFFF AND PUSH20 0xFFFFFFFFFFFFFFFFFFFFFFFFFFFFFFFFFFFFFFFF AND DUP2 MSTORE PUSH1 0x20 ADD SWAP1 DUP2 MSTORE PUSH1 0x20 ADD PUSH1 0x0 KECCAK256 PUSH1 0x0 DUP6 DUP2 MSTORE PUSH1 0x20 ADD SWAP1 DUP2 MSTORE PUSH1 0x20 ADD PUSH1 0x0 KECCAK256 SLOAD LT ISZERO PUSH2 0x729 JUMPI PUSH1 0x40 MLOAD PUSH32 0x8C379A000000000000000000000000000000000000000000000000000000000 DUP2 MSTORE PUSH1 0x4 ADD PUSH2 0x720 SWAP1 PUSH2 0x13AC JUMP JUMPDEST PUSH1 0x40 MLOAD DUP1 SWAP2 SUB SWAP1 REVERT JUMPDEST DUP2 PUSH1 0x1 PUSH1 0x0 CALLER PUSH20 0xFFFFFFFFFFFFFFFFFFFFFFFFFFFFFFFFFFFFFFFF AND PUSH20 0xFFFFFFFFFFFFFFFFFFFFFFFFFFFFFFFFFFFFFFFF AND DUP2 MSTORE PUSH1 0x20 ADD SWAP1 DUP2 MSTORE PUSH1 0x20 ADD PUSH1 0x0 KECCAK256 PUSH1 0x0 DUP6 DUP2 MSTORE PUSH1 0x20 ADD SWAP1 DUP2 MSTORE PUSH1 0x20 ADD PUSH1 0x0 KECCAK256 PUSH1 0x0 DUP3 DUP3 SLOAD PUSH2 0x789 SWAP2 SWAP1 PUSH2 0x12F8 JUMP JUMPDEST SWAP3 POP POP DUP2 SWAP1 SSTORE POP DUP2 PUSH1 0x1 PUSH1 0x0 DUP4 PUSH20 0xFFFFFFFFFFFFFFFFFFFFFFFFFFFFFFFFFFFFFFFF AND PUSH20 0xFFFFFFFFFFFFFFFFFFFFFFFFFFFFFFFFFFFFFFFF AND DUP2 MSTORE PUSH1 0x20 ADD SWAP1 DUP2 MSTORE PUSH1 0x20 ADD PUSH1 0x0 KECCAK256 PUSH1 0x0 DUP6 DUP2 MSTORE PUSH1 0x20 ADD SWAP1 DUP2 MSTORE PUSH1 0x20 ADD PUSH1 0x0 KECCAK256 PUSH1 0x0 DUP3 DUP3 SLOAD PUSH2 0x7F0 SWAP2 SWAP1 PUSH2 0x132C JUMP JUMPDEST SWAP3 POP POP DUP2 SWAP1 SSTORE POP POP POP POP JUMP JUMPDEST PUSH1 0x0 PUSH1 0x40 MLOAD SWAP1 POP SWAP1 JUMP JUMPDEST PUSH1 0x0 DUP1 REVERT JUMPDEST PUSH1 0x0 DUP1 REVERT JUMPDEST PUSH1 0x0 DUP1 REVERT JUMPDEST PUSH1 0x0 DUP1 REVERT JUMPDEST PUSH1 0x0 PUSH1 0x1F NOT PUSH1 0x1F DUP4 ADD AND SWAP1 POP SWAP2 SWAP1 POP JUMP JUMPDEST PUSH32 0x4E487B7100000000000000000000000000000000000000000000000000000000 PUSH1 0x0 MSTORE PUSH1 0x41 PUSH1 0x4 MSTORE PUSH1 0x24 PUSH1 0x0 REVERT JUMPDEST PUSH2 0x863 DUP3 PUSH2 0x81A JUMP JUMPDEST DUP2 ADD DUP2 DUP2 LT PUSH8 0xFFFFFFFFFFFFFFFF DUP3 GT OR ISZERO PUSH2 0x882 JUMPI PUSH2 0x881 PUSH2 0x82B JUMP JUMPDEST JUMPDEST DUP1 PUSH1 0x40 MSTORE POP POP POP JUMP JUMPDEST PUSH1 0x0 PUSH2 0x895 PUSH2 0x7FC JUMP JUMPDEST SWAP1 POP PUSH2 0x8A1 DUP3 DUP3 PUSH2 0x85A JUMP JUMPDEST SWAP2 SWAP1 POP JUMP JUMPDEST PUSH1 0x0 PUSH8 0xFFFFFFFFFFFFFFFF DUP3 GT ISZERO PUSH2 0x8C1 JUMPI PUSH2 0x8C0 PUSH2 0x82B JUMP JUMPDEST JUMPDEST PUSH2 0x8CA DUP3 PUSH2 0x81A JUMP JUMPDEST SWAP1 POP PUSH1 0x20 DUP2 ADD SWAP1 POP SWAP2 SWAP1 POP JUMP JUMPDEST DUP3 DUP2 DUP4 CALLDATACOPY PUSH1 0x0 DUP4 DUP4 ADD MSTORE POP POP POP JUMP JUMPDEST PUSH1 0x0 PUSH2 0x8F9 PUSH2 0x8F4 DUP5 PUSH2 0x8A6 JUMP JUMPDEST PUSH2 0x88B JUMP JUMPDEST SWAP1 POP DUP3 DUP2 MSTORE PUSH1 0x20 DUP2 ADD DUP5 DUP5 DUP5 ADD GT ISZERO PUSH2 0x915 JUMPI PUSH2 0x914 PUSH2 0x815 JUMP JUMPDEST JUMPDEST PUSH2 0x920 DUP5 DUP3 DUP6 PUSH2 0x8D7 JUMP JUMPDEST POP SWAP4 SWAP3 POP POP POP JUMP JUMPDEST PUSH1 0x0 DUP3 PUSH1 0x1F DUP4 ADD SLT PUSH2 0x93D JUMPI PUSH2 0x93C PUSH2 0x810 JUMP JUMPDEST JUMPDEST DUP2 CALLDATALOAD PUSH2 0x94D DUP5 DUP3 PUSH1 0x20 DUP7 ADD PUSH2 0x8E6 JUMP JUMPDEST SWAP2 POP POP SWAP3 SWAP2 POP POP JUMP JUMPDEST PUSH1 0x0 DUP2 SWAP1 POP SWAP2 SWAP1 POP JUMP JUMPDEST PUSH2 0x969 DUP2 PUSH2 0x956 JUMP JUMPDEST DUP2 EQ PUSH2 0x974 JUMPI PUSH1 0x0 DUP1 REVERT JUMPDEST POP JUMP JUMPDEST PUSH1 0x0 DUP2 CALLDATALOAD SWAP1 POP PUSH2 0x986 DUP2 PUSH2 0x960 JUMP JUMPDEST SWAP3 SWAP2 POP POP JUMP JUMPDEST PUSH1 0x0 DUP1 PUSH1 0x0 DUP1 PUSH1 0x80 DUP6 DUP8 SUB SLT ISZERO PUSH2 0x9A6 JUMPI PUSH2 0x9A5 PUSH2 0x806 JUMP JUMPDEST JUMPDEST PUSH1 0x0 DUP6 ADD CALLDATALOAD PUSH8 0xFFFFFFFFFFFFFFFF DUP2 GT ISZERO PUSH2 0x9C4 JUMPI PUSH2 0x9C3 PUSH2 0x80B JUMP JUMPDEST JUMPDEST PUSH2 0x9D0 DUP8 DUP3 DUP9 ADD PUSH2 0x928 JUMP JUMPDEST SWAP5 POP POP PUSH1 0x20 PUSH2 0x9E1 DUP8 DUP3 DUP9 ADD PUSH2 0x977 JUMP JUMPDEST SWAP4 POP POP PUSH1 0x40 PUSH2 0x9F2 DUP8 DUP3 DUP9 ADD PUSH2 0x977 JUMP JUMPDEST SWAP3 POP POP PUSH1 0x60 PUSH2 0xA03 DUP8 DUP3 DUP9 ADD PUSH2 0x977 JUMP JUMPDEST SWAP2 POP POP SWAP3 SWAP6 SWAP2 SWAP5 POP SWAP3 POP JUMP JUMPDEST PUSH1 0x0 PUSH1 0x20 DUP3 DUP5 SUB SLT ISZERO PUSH2 0xA25 JUMPI PUSH2 0xA24 PUSH2 0x806 JUMP JUMPDEST JUMPDEST PUSH1 0x0 PUSH2 0xA33 DUP5 DUP3 DUP6 ADD PUSH2 0x977 JUMP JUMPDEST SWAP2 POP POP SWAP3 SWAP2 POP POP JUMP JUMPDEST PUSH1 0x0 PUSH20 0xFFFFFFFFFFFFFFFFFFFFFFFFFFFFFFFFFFFFFFFF DUP3 AND SWAP1 POP SWAP2 SWAP1 POP JUMP JUMPDEST PUSH1 0x0 PUSH2 0xA67 DUP3 PUSH2 0xA3C JUMP JUMPDEST SWAP1 POP SWAP2 SWAP1 POP JUMP JUMPDEST PUSH2 0xA77 DUP2 PUSH2 0xA5C JUMP JUMPDEST DUP3 MSTORE POP POP JUMP JUMPDEST PUSH1 0x0 DUP2 MLOAD SWAP1 POP SWAP2 SWAP1 POP JUMP JUMPDEST PUSH1 0x0 DUP3 DUP3 MSTORE PUSH1 0x20 DUP3 ADD SWAP1 POP SWAP3 SWAP2 POP POP JUMP JUMPDEST PUSH1 0x0 JUMPDEST DUP4 DUP2 LT ISZERO PUSH2 0xAB7 JUMPI DUP1 DUP3 ADD MLOAD DUP2 DUP5 ADD MSTORE PUSH1 0x20 DUP2 ADD SWAP1 POP PUSH2 0xA9C JUMP JUMPDEST PUSH1 0x0 DUP5 DUP5 ADD MSTORE POP POP POP POP JUMP JUMPDEST PUSH1 0x0 PUSH2 0xACE DUP3 PUSH2 0xA7D JUMP JUMPDEST PUSH2 0xAD8 DUP2 DUP6 PUSH2 0xA88 JUMP JUMPDEST SWAP4 POP PUSH2 0xAE8 DUP2 DUP6 PUSH1 0x20 DUP7 ADD PUSH2 0xA99 JUMP JUMPDEST PUSH2 0xAF1 DUP2 PUSH2 0x81A JUMP JUMPDEST DUP5 ADD SWAP2 POP POP SWAP3 SWAP2 POP POP JUMP JUMPDEST PUSH2 0xB05 DUP2 PUSH2 0x956 JUMP JUMPDEST DUP3 MSTORE POP POP JUMP JUMPDEST PUSH1 0x0 PUSH1 0xC0 DUP3 ADD SWAP1 POP PUSH2 0xB20 PUSH1 0x0 DUP4 ADD DUP10 PUSH2 0xA6E JUMP JUMPDEST DUP2 DUP2 SUB PUSH1 0x20 DUP4 ADD MSTORE PUSH2 0xB32 DUP2 DUP9 PUSH2 0xAC3 JUMP JUMPDEST SWAP1 POP PUSH2 0xB41 PUSH1 0x40 DUP4 ADD DUP8 PUSH2 0xAFC JUMP JUMPDEST PUSH2 0xB4E PUSH1 0x60 DUP4 ADD DUP7 PUSH2 0xAFC JUMP JUMPDEST PUSH2 0xB5B PUSH1 0x80 DUP4 ADD DUP6 PUSH2 0xAFC JUMP JUMPDEST PUSH2 0xB68 PUSH1 0xA0 DUP4 ADD DUP5 PUSH2 0xAFC JUMP JUMPDEST SWAP8 SWAP7 POP POP POP POP POP POP POP JUMP JUMPDEST PUSH1 0x0 DUP1 PUSH1 0x40 DUP4 DUP6 SUB SLT ISZERO PUSH2 0xB8A JUMPI PUSH2 0xB89 PUSH2 0x806 JUMP JUMPDEST JUMPDEST PUSH1 0x0 PUSH2 0xB98 DUP6 DUP3 DUP7 ADD PUSH2 0x977 JUMP JUMPDEST SWAP3 POP POP PUSH1 0x20 PUSH2 0xBA9 DUP6 DUP3 DUP7 ADD PUSH2 0x977 JUMP JUMPDEST SWAP2 POP POP SWAP3 POP SWAP3 SWAP1 POP JUMP JUMPDEST PUSH1 0x0 PUSH1 0x20 DUP3 ADD SWAP1 POP PUSH2 0xBC8 PUSH1 0x0 DUP4 ADD DUP5 PUSH2 0xAFC JUMP JUMPDEST SWAP3 SWAP2 POP POP JUMP JUMPDEST PUSH2 0xBD7 DUP2 PUSH2 0xA5C JUMP JUMPDEST DUP2 EQ PUSH2 0xBE2 JUMPI PUSH1 0x0 DUP1 REVERT JUMPDEST POP JUMP JUMPDEST PUSH1 0x0 DUP2 CALLDATALOAD SWAP1 POP PUSH2 0xBF4 DUP2 PUSH2 0xBCE JUMP JUMPDEST SWAP3 SWAP2 POP POP JUMP JUMPDEST PUSH1 0x0 DUP1 PUSH1 0x40 DUP4 DUP6 SUB SLT ISZERO PUSH2 0xC11 JUMPI PUSH2 0xC10 PUSH2 0x806 JUMP JUMPDEST JUMPDEST PUSH1 0x0 PUSH2 0xC1F DUP6 DUP3 DUP7 ADD PUSH2 0xBE5 JUMP JUMPDEST SWAP3 POP POP PUSH1 0x20 PUSH2 0xC30 DUP6 DUP3 DUP7 ADD PUSH2 0x977 JUMP JUMPDEST SWAP2 POP POP SWAP3 POP SWAP3 SWAP1 POP JUMP JUMPDEST PUSH1 0x0 DUP1 PUSH1 0x0 PUSH1 0x60 DUP5 DUP7 SUB SLT ISZERO PUSH2 0xC53 JUMPI PUSH2 0xC52 PUSH2 0x806 JUMP JUMPDEST JUMPDEST PUSH1 0x0 PUSH2 0xC61 DUP7 DUP3 DUP8 ADD PUSH2 0x977 JUMP JUMPDEST SWAP4 POP POP PUSH1 0x20 PUSH2 0xC72 DUP7 DUP3 DUP8 ADD PUSH2 0x977 JUMP JUMPDEST SWAP3 POP POP PUSH1 0x40 PUSH2 0xC83 DUP7 DUP3 DUP8 ADD PUSH2 0xBE5 JUMP JUMPDEST SWAP2 POP POP SWAP3 POP SWAP3 POP SWAP3 JUMP JUMPDEST PUSH32 0x796F752063616E206F7267616E697A65206576656E7420666F72206675747572 PUSH1 0x0 DUP3 ADD MSTORE PUSH32 0x6500000000000000000000000000000000000000000000000000000000000000 PUSH1 0x20 DUP3 ADD MSTORE POP JUMP JUMPDEST PUSH1 0x0 PUSH2 0xCE9 PUSH1 0x21 DUP4 PUSH2 0xA88 JUMP JUMPDEST SWAP2 POP PUSH2 0xCF4 DUP3 PUSH2 0xC8D JUMP JUMPDEST PUSH1 0x40 DUP3 ADD SWAP1 POP SWAP2 SWAP1 POP JUMP JUMPDEST PUSH1 0x0 PUSH1 0x20 DUP3 ADD SWAP1 POP DUP2 DUP2 SUB PUSH1 0x0 DUP4 ADD MSTORE PUSH2 0xD18 DUP2 PUSH2 0xCDC JUMP JUMPDEST SWAP1 POP SWAP2 SWAP1 POP JUMP JUMPDEST PUSH32 0x796F752063616E206F7267616E697A65206576656E74206F6E6C792069662079 PUSH1 0x0 DUP3 ADD MSTORE PUSH32 0x6F752063616E206D6F7265207468616E2030207469636B657473000000000000 PUSH1 0x20 DUP3 ADD MSTORE POP JUMP JUMPDEST PUSH1 0x0 PUSH2 0xD7B PUSH1 0x3A DUP4 PUSH2 0xA88 JUMP JUMPDEST SWAP2 POP PUSH2 0xD86 DUP3 PUSH2 0xD1F JUMP JUMPDEST PUSH1 0x40 DUP3 ADD SWAP1 POP SWAP2 SWAP1 POP JUMP JUMPDEST PUSH1 0x0 PUSH1 0x20 DUP3 ADD SWAP1 POP DUP2 DUP2 SUB PUSH1 0x0 DUP4 ADD MSTORE PUSH2 0xDAA DUP2 PUSH2 0xD6E JUMP JUMPDEST SWAP1 POP SWAP2 SWAP1 POP JUMP JUMPDEST PUSH32 0x4E487B7100000000000000000000000000000000000000000000000000000000 PUSH1 0x0 MSTORE PUSH1 0x22 PUSH1 0x4 MSTORE PUSH1 0x24 PUSH1 0x0 REVERT JUMPDEST PUSH1 0x0 PUSH1 0x2 DUP3 DIV SWAP1 POP PUSH1 0x1 DUP3 AND DUP1 PUSH2 0xDF8 JUMPI PUSH1 0x7F DUP3 AND SWAP2 POP JUMPDEST PUSH1 0x20 DUP3 LT DUP2 SUB PUSH2 0xE0B JUMPI PUSH2 0xE0A PUSH2 0xDB1 JUMP JUMPDEST JUMPDEST POP SWAP2 SWAP1 POP JUMP JUMPDEST PUSH1 0x0 DUP2 SWAP1 POP DUP2 PUSH1 0x0 MSTORE PUSH1 0x20 PUSH1 0x0 KECCAK256 SWAP1 POP SWAP2 SWAP1 POP JUMP JUMPDEST PUSH1 0x0 PUSH1 0x20 PUSH1 0x1F DUP4 ADD DIV SWAP1 POP SWAP2 SWAP1 POP JUMP JUMPDEST PUSH1 0x0 DUP3 DUP3 SHL SWAP1 POP SWAP3 SWAP2 POP POP JUMP JUMPDEST PUSH1 0x0 PUSH1 0x8 DUP4 MUL PUSH2 0xE73 PUSH32 0xFFFFFFFFFFFFFFFFFFFFFFFFFFFFFFFFFFFFFFFFFFFFFFFFFFFFFFFFFFFFFFFF DUP3 PUSH2 0xE36 JUMP JUMPDEST PUSH2 0xE7D DUP7 DUP4 PUSH2 0xE36 JUMP JUMPDEST SWAP6 POP DUP1 NOT DUP5 AND SWAP4 POP DUP1 DUP7 AND DUP5 OR SWAP3 POP POP POP SWAP4 SWAP3 POP POP POP JUMP JUMPDEST PUSH1 0x0 DUP2 SWAP1 POP SWAP2 SWAP1 POP JUMP JUMPDEST PUSH1 0x0 PUSH2 0xEBA PUSH2 0xEB5 PUSH2 0xEB0 DUP5 PUSH2 0x956 JUMP JUMPDEST PUSH2 0xE95 JUMP JUMPDEST PUSH2 0x956 JUMP JUMPDEST SWAP1 POP SWAP2 SWAP1 POP JUMP JUMPDEST PUSH1 0x0 DUP2 SWAP1 POP SWAP2 SWAP1 POP JUMP JUMPDEST PUSH2 0xED4 DUP4 PUSH2 0xE9F JUMP JUMPDEST PUSH2 0xEE8 PUSH2 0xEE0 DUP3 PUSH2 0xEC1 JUMP JUMPDEST DUP5 DUP5 SLOAD PUSH2 0xE43 JUMP JUMPDEST DUP3 SSTORE POP POP POP POP JUMP JUMPDEST PUSH1 0x0 SWAP1 JUMP JUMPDEST PUSH2 0xEFD PUSH2 0xEF0 JUMP JUMPDEST PUSH2 0xF08 DUP2 DUP5 DUP5 PUSH2 0xECB JUMP JUMPDEST POP POP POP JUMP JUMPDEST JUMPDEST DUP2 DUP2 LT ISZERO PUSH2 0xF2C JUMPI PUSH2 0xF21 PUSH1 0x0 DUP3 PUSH2 0xEF5 JUMP JUMPDEST PUSH1 0x1 DUP2 ADD SWAP1 POP PUSH2 0xF0E JUMP JUMPDEST POP POP JUMP JUMPDEST PUSH1 0x1F DUP3 GT ISZERO PUSH2 0xF71 JUMPI PUSH2 0xF42 DUP2 PUSH2 0xE11 JUMP JUMPDEST PUSH2 0xF4B DUP5 PUSH2 0xE26 JUMP JUMPDEST DUP2 ADD PUSH1 0x20 DUP6 LT ISZERO PUSH2 0xF5A JUMPI DUP2 SWAP1 POP JUMPDEST PUSH2 0xF6E PUSH2 0xF66 DUP6 PUSH2 0xE26 JUMP JUMPDEST DUP4 ADD DUP3 PUSH2 0xF0D JUMP JUMPDEST POP POP JUMPDEST POP POP POP JUMP JUMPDEST PUSH1 0x0 DUP3 DUP3 SHR SWAP1 POP SWAP3 SWAP2 POP POP JUMP JUMPDEST PUSH1 0x0 PUSH2 0xF94 PUSH1 0x0 NOT DUP5 PUSH1 0x8 MUL PUSH2 0xF76 JUMP JUMPDEST NOT DUP1 DUP4 AND SWAP2 POP POP SWAP3 SWAP2 POP POP JUMP JUMPDEST PUSH1 0x0 PUSH2 0xFAD DUP4 DUP4 PUSH2 0xF83 JUMP JUMPDEST SWAP2 POP DUP3 PUSH1 0x2 MUL DUP3 OR SWAP1 POP SWAP3 SWAP2 POP POP JUMP JUMPDEST PUSH2 0xFC6 DUP3 PUSH2 0xA7D JUMP JUMPDEST PUSH8 0xFFFFFFFFFFFFFFFF DUP2 GT ISZERO PUSH2 0xFDF JUMPI PUSH2 0xFDE PUSH2 0x82B JUMP JUMPDEST JUMPDEST PUSH2 0xFE9 DUP3 SLOAD PUSH2 0xDE0 JUMP JUMPDEST PUSH2 0xFF4 DUP3 DUP3 DUP6 PUSH2 0xF30 JUMP JUMPDEST PUSH1 0x0 PUSH1 0x20 SWAP1 POP PUSH1 0x1F DUP4 GT PUSH1 0x1 DUP2 EQ PUSH2 0x1027 JUMPI PUSH1 0x0 DUP5 ISZERO PUSH2 0x1015 JUMPI DUP3 DUP8 ADD MLOAD SWAP1 POP JUMPDEST PUSH2 0x101F DUP6 DUP3 PUSH2 0xFA1 JUMP JUMPDEST DUP7 SSTORE POP PUSH2 0x1087 JUMP JUMPDEST PUSH1 0x1F NOT DUP5 AND PUSH2 0x1035 DUP7 PUSH2 0xE11 JUMP JUMPDEST PUSH1 0x0 JUMPDEST DUP3 DUP2 LT ISZERO PUSH2 0x105D JUMPI DUP5 DUP10 ADD MLOAD DUP3 SSTORE PUSH1 0x1 DUP3 ADD SWAP2 POP PUSH1 0x20 DUP6 ADD SWAP5 POP PUSH1 0x20 DUP2 ADD SWAP1 POP PUSH2 0x1038 JUMP JUMPDEST DUP7 DUP4 LT ISZERO PUSH2 0x107A JUMPI DUP5 DUP10 ADD MLOAD PUSH2 0x1076 PUSH1 0x1F DUP10 AND DUP3 PUSH2 0xF83 JUMP JUMPDEST DUP4 SSTORE POP JUMPDEST PUSH1 0x1 PUSH1 0x2 DUP9 MUL ADD DUP9 SSTORE POP POP POP JUMPDEST POP POP POP POP POP POP JUMP JUMPDEST PUSH32 0x4E487B7100000000000000000000000000000000000000000000000000000000 PUSH1 0x0 MSTORE PUSH1 0x11 PUSH1 0x4 MSTORE PUSH1 0x24 PUSH1 0x0 REVERT JUMPDEST PUSH1 0x0 PUSH2 0x10C9 DUP3 PUSH2 0x956 JUMP JUMPDEST SWAP2 POP PUSH32 0xFFFFFFFFFFFFFFFFFFFFFFFFFFFFFFFFFFFFFFFFFFFFFFFFFFFFFFFFFFFFFFFF DUP3 SUB PUSH2 0x10FB JUMPI PUSH2 0x10FA PUSH2 0x108F JUMP JUMPDEST JUMPDEST PUSH1 0x1 DUP3 ADD SWAP1 POP SWAP2 SWAP1 POP JUMP JUMPDEST PUSH32 0x4576656E7420646F6573206E6F74206578697374000000000000000000000000 PUSH1 0x0 DUP3 ADD MSTORE POP JUMP JUMPDEST PUSH1 0x0 PUSH2 0x113C PUSH1 0x14 DUP4 PUSH2 0xA88 JUMP JUMPDEST SWAP2 POP PUSH2 0x1147 DUP3 PUSH2 0x1106 JUMP JUMPDEST PUSH1 0x20 DUP3 ADD SWAP1 POP SWAP2 SWAP1 POP JUMP JUMPDEST PUSH1 0x0 PUSH1 0x20 DUP3 ADD SWAP1 POP DUP2 DUP2 SUB PUSH1 0x0 DUP4 ADD MSTORE PUSH2 0x116B DUP2 PUSH2 0x112F JUMP JUMPDEST SWAP1 POP SWAP2 SWAP1 POP JUMP JUMPDEST PUSH32 0x6576656E742068617320616C7265616479206F63637572656400000000000000 PUSH1 0x0 DUP3 ADD MSTORE POP JUMP JUMPDEST PUSH1 0x0 PUSH2 0x11A8 PUSH1 0x19 DUP4 PUSH2 0xA88 JUMP JUMPDEST SWAP2 POP PUSH2 0x11B3 DUP3 PUSH2 0x1172 JUMP JUMPDEST PUSH1 0x20 DUP3 ADD SWAP1 POP SWAP2 SWAP1 POP JUMP JUMPDEST PUSH1 0x0 PUSH1 0x20 DUP3 ADD SWAP1 POP DUP2 DUP2 SUB PUSH1 0x0 DUP4 ADD MSTORE PUSH2 0x11D7 DUP2 PUSH2 0x119B JUMP JUMPDEST SWAP1 POP SWAP2 SWAP1 POP JUMP JUMPDEST PUSH1 0x0 PUSH2 0x11E9 DUP3 PUSH2 0x956 JUMP JUMPDEST SWAP2 POP PUSH2 0x11F4 DUP4 PUSH2 0x956 JUMP JUMPDEST SWAP3 POP DUP3 DUP3 MUL PUSH2 0x1202 DUP2 PUSH2 0x956 JUMP JUMPDEST SWAP2 POP DUP3 DUP3 DIV DUP5 EQ DUP4 ISZERO OR PUSH2 0x1219 JUMPI PUSH2 0x1218 PUSH2 0x108F JUMP JUMPDEST JUMPDEST POP SWAP3 SWAP2 POP POP JUMP JUMPDEST PUSH32 0x457468657265206973206E6F7420656E6F756768000000000000000000000000 PUSH1 0x0 DUP3 ADD MSTORE POP JUMP JUMPDEST PUSH1 0x0 PUSH2 0x1256 PUSH1 0x14 DUP4 PUSH2 0xA88 JUMP JUMPDEST SWAP2 POP PUSH2 0x1261 DUP3 PUSH2 0x1220 JUMP JUMPDEST PUSH1 0x20 DUP3 ADD SWAP1 POP SWAP2 SWAP1 POP JUMP JUMPDEST PUSH1 0x0 PUSH1 0x20 DUP3 ADD SWAP1 POP DUP2 DUP2 SUB PUSH1 0x0 DUP4 ADD MSTORE PUSH2 0x1285 DUP2 PUSH2 0x1249 JUMP JUMPDEST SWAP1 POP SWAP2 SWAP1 POP JUMP JUMPDEST PUSH32 0x6E6F7420656E6F756768207469636B6574730000000000000000000000000000 PUSH1 0x0 DUP3 ADD MSTORE POP JUMP JUMPDEST PUSH1 0x0 PUSH2 0x12C2 PUSH1 0x12 DUP4 PUSH2 0xA88 JUMP JUMPDEST SWAP2 POP PUSH2 0x12CD DUP3 PUSH2 0x128C JUMP JUMPDEST PUSH1 0x20 DUP3 ADD SWAP1 POP SWAP2 SWAP1 POP JUMP JUMPDEST PUSH1 0x0 PUSH1 0x20 DUP3 ADD SWAP1 POP DUP2 DUP2 SUB PUSH1 0x0 DUP4 ADD MSTORE PUSH2 0x12F1 DUP2 PUSH2 0x12B5 JUMP JUMPDEST SWAP1 POP SWAP2 SWAP1 POP JUMP JUMPDEST PUSH1 0x0 PUSH2 0x1303 DUP3 PUSH2 0x956 JUMP JUMPDEST SWAP2 POP PUSH2 0x130E DUP4 PUSH2 0x956 JUMP JUMPDEST SWAP3 POP DUP3 DUP3 SUB SWAP1 POP DUP2 DUP2 GT ISZERO PUSH2 0x1326 JUMPI PUSH2 0x1325 PUSH2 0x108F JUMP JUMPDEST JUMPDEST SWAP3 SWAP2 POP POP JUMP JUMPDEST PUSH1 0x0 PUSH2 0x1337 DUP3 PUSH2 0x956 JUMP JUMPDEST SWAP2 POP PUSH2 0x1342 DUP4 PUSH2 0x956 JUMP JUMPDEST SWAP3 POP DUP3 DUP3 ADD SWAP1 POP DUP1 DUP3 GT ISZERO PUSH2 0x135A JUMPI PUSH2 0x1359 PUSH2 0x108F JUMP JUMPDEST JUMPDEST SWAP3 SWAP2 POP POP JUMP JUMPDEST PUSH32 0x796F7520646F6E74206E6F74206861766520656E6F756768207469636B657473 PUSH1 0x0 DUP3 ADD MSTORE POP JUMP JUMPDEST PUSH1 0x0 PUSH2 0x1396 PUSH1 0x20 DUP4 PUSH2 0xA88 JUMP JUMPDEST SWAP2 POP PUSH2 0x13A1 DUP3 PUSH2 0x1360 JUMP JUMPDEST PUSH1 0x20 DUP3 ADD SWAP1 POP SWAP2 SWAP1 POP JUMP JUMPDEST PUSH1 0x0 PUSH1 0x20 DUP3 ADD SWAP1 POP DUP2 DUP2 SUB PUSH1 0x0 DUP4 ADD MSTORE PUSH2 0x13C5 DUP2 PUSH2 0x1389 JUMP JUMPDEST SWAP1 POP SWAP2 SWAP1 POP JUMP INVALID LOG2 PUSH5 0x6970667358 0x22 SLT KECCAK256 LOG3 SWAP7 0xD4 0xD1 PUSH13 0x2F5164DB64E68FF2BB058DE107 0xA8 EXTCODESIZE NOT 0x25 EXTCODEHASH 0xC2 0xD8 0xD2 0xB7 0xE6 JUMPI SWAP11 PUSH3 0x4D6473 PUSH16 0x6C634300081200330000000000000000 "
				},
				"gasEstimates": {
					"creation": {
						"codeDepositCost": "1024400",
						"executionCost": "1067",
						"totalCost": "1025467"
					},
					"external": {
						"buyTicket(uint256,uint256)": "infinite",
						"createEvent(string,uint256,uint256,uint256)": "infinite",
						"events(uint256)": "infinite",
						"nextId()": "2473",
						"tickets(address,uint256)": "infinite",
						"transferTicket(uint256,uint256,address)": "infinite"
					}
				},
				"methodIdentifiers": {
					"buyTicket(uint256,uint256)": "298ec208",
					"createEvent(string,uint256,uint256,uint256)": "0374ab0b",
					"events(uint256)": "0b791430",
					"nextId()": "61b8ce8c",
					"tickets(address,uint256)": "dae7a13c",
					"transferTicket(uint256,uint256,address)": "f086a09b"
				}
			},
			"storageLayout": {
				"storage": [
					{
						"astId": 19,
						"contract": "event.sol:EventContract",
						"label": "events",
						"offset": 0,
						"slot": "0",
						"type": "t_mapping(t_uint256,t_struct(Event)14_storage)"
					},
					{
						"astId": 25,
						"contract": "event.sol:EventContract",
						"label": "tickets",
						"offset": 0,
						"slot": "1",
						"type": "t_mapping(t_address,t_mapping(t_uint256,t_uint256))"
					},
					{
						"astId": 27,
						"contract": "event.sol:EventContract",
						"label": "nextId",
						"offset": 0,
						"slot": "2",
						"type": "t_uint256"
					}
				],
				"types": {
					"t_address": {
						"encoding": "inplace",
						"label": "address",
						"numberOfBytes": "20"
					},
					"t_mapping(t_address,t_mapping(t_uint256,t_uint256))": {
						"encoding": "mapping",
						"key": "t_address",
						"label": "mapping(address => mapping(uint256 => uint256))",
						"numberOfBytes": "32",
						"value": "t_mapping(t_uint256,t_uint256)"
					},
					"t_mapping(t_uint256,t_struct(Event)14_storage)": {
						"encoding": "mapping",
						"key": "t_uint256",
						"label": "mapping(uint256 => struct EventContract.Event)",
						"numberOfBytes": "32",
						"value": "t_struct(Event)14_storage"
					},
					"t_mapping(t_uint256,t_uint256)": {
						"encoding": "mapping",
						"key": "t_uint256",
						"label": "mapping(uint256 => uint256)",
						"numberOfBytes": "32",
						"value": "t_uint256"
					},
					"t_string_storage": {
						"encoding": "bytes",
						"label": "string",
						"numberOfBytes": "32"
					},
					"t_struct(Event)14_storage": {
						"encoding": "inplace",
						"label": "struct EventContract.Event",
						"members": [
							{
								"astId": 3,
								"contract": "event.sol:EventContract",
								"label": "organizer",
								"offset": 0,
								"slot": "0",
								"type": "t_address"
							},
							{
								"astId": 5,
								"contract": "event.sol:EventContract",
								"label": "name",
								"offset": 0,
								"slot": "1",
								"type": "t_string_storage"
							},
							{
								"astId": 7,
								"contract": "event.sol:EventContract",
								"label": "date",
								"offset": 0,
								"slot": "2",
								"type": "t_uint256"
							},
							{
								"astId": 9,
								"contract": "event.sol:EventContract",
								"label": "price",
								"offset": 0,
								"slot": "3",
								"type": "t_uint256"
							},
							{
								"astId": 11,
								"contract": "event.sol:EventContract",
								"label": "ticketCount",
								"offset": 0,
								"slot": "4",
								"type": "t_uint256"
							},
							{
								"astId": 13,
								"contract": "event.sol:EventContract",
								"label": "ticketRemain",
								"offset": 0,
								"slot": "5",
								"type": "t_uint256"
							}
						],
						"numberOfBytes": "192"
					},
					"t_uint256": {
						"encoding": "inplace",
						"label": "uint256",
						"numberOfBytes": "32"
					}
				}
			},
			"userdoc": {
				"kind": "user",
				"methods": {},
				"version": 1
			}
		}
	}
}